:020000040800F2
:10000000800E002049010008DF3400081F27000887
:10001000DD3400085D030008F53D00080000000025
:10002000000000000000000000000000113800087F
:100030009703000800000000E134000813380008AE
:100040006301000863010008630100086301000800
:1000500063010008630100086301000863010008F0
:1000600063010008630100086301000863010008E0
:1000700063010008610300086301000863010008D0
:1000800063010008630100087D02000863010008A5
:100090006301000863010008630100089903000878
:1000A00063010008630100086301000863010008A0
:1000B0006301000863010008630100086301000890
:1000C0006301000863010008630100085936000855
:1000D00063010008D13D0008DD3D0008E93D00084E
:1000E0006301000863010008630100086301000860
:1000F0006301000863010008630100086301000850
:1001000063010008630100089538000863010008D6
:10011000453B000863010008A1380008AD3800081D
:10012000630100086301000863010008630100081F
:10013000DFF810D000F080F800480047954500082F
:10014000AFF30080800E0020064880470648004735
:10015000FEE7FEE7FEE7FEE7FEE7FEE7FEE7FEE777
:10016000FEE7FEE79138000831010008202A04DB91
:10017000203A21FA02F00021704721FA02F3D04020
:10018000C2F12002914008431946704740EA01033A
:100190009B0703D009E008C9121F08C0042AFAD23D
:1001A00003E011F8013B00F8013B521EF9D2704701
:1001B000D2B201E000F8012B491EFBD270470022A9
:1001C000F6E710B513460A4604461946FFF7F0FF56
:1001D000204610BD2DE9F05F0546002092469B4663
:1001E00088460646814640241BE02846414647464D
:1001F0002246FFF7BBFF53465A46C01A914110D31F
:1002000011461846224600F029F82D1A67EB01081E
:100210004F4622460120002100F020F817EB00098C
:100220004E41201EA4F10104DFDC484631462A4637
:100230004346BDE8F09F0000064C074D06E0E0682D
:1002400040F0010394E8070098471034AC42F6D31D
:10025000FFF772FF18E8000838E80008202A04DBDE
:10026000203A00FA02F1002070479140C2F12003C9
:1002700020FA03F31943904070470000014800F052
:100280007EB900003000002070B504460068816827
:10029000C943C90717D1816821F00101816000F0CD
:1002A00047FE05460AE000BF00F042FE401B022860
:1002B00004D920688068C043C00706D020688068E1
:1002C000C043C007F0D0002070BDA06A40F010000D
:1002D000A062E06A40F00100E062012070BD000011
:1002E000F8B500260446009600688168C943C9072E
:1002F0002DD0816841F001018160164816490068DF
:10030000B0FBF1F000E0401E00900028FBD100F0AF
:100310000FFE054616E000BF00F00AFE401B022853
:1003200010D920688068C043C0070BD0A06A40F095
:100330001000A062E06A40F00100E06284F82460EE
:100340000120F8BD20688068C043C007E4D10020C8
:10035000F8BD00001000002040420F00FEE7000042
:10036000014800F01FBB0000B800002030B590F835
:1003700040500124AC40C56B6C6004686360436806
:10038000102B036803D099600068C26030BD9A608A
:100390000068C16030BD7047402000F0B7BC72B645
:1003A000FEE70000F8B500250446009590F824000B
:1003B00001280BD0012084F824002046FFF764FFB9
:1003C0002046FFF78DFF060002D050E00220F8BD66
:1003D000A06A20F4885040F00200A062022000F0E1
:1003E00045FE25490968B1FBF0F0400000E0401EE1
:1003F00000900028FBD12068816841F008018160ED
:1004000000F096FD074608E000F092FDC01B0A28A8
:1004100003D920688068000715D420688068000729
:10042000F2D42068816841F00401816000F080FD11
:10043000074612E000F07CFDC01B0A280DD9206899
:100440008068400709D5A06A20F0020040F0100043
:10045000A06284F824500120F8BD2068806840071D
:10046000E8D4A06A20F0020040F00100A06284F805
:1004700024503046F8BD00001000002070470000F6
:10048000F8B50024009490F824202546012A12D0C3
:10049000012280F824204A681F23072A0DD206680B
:1004A000776B521E02EB820293409F430B6893408E
:1004B0001F43776319E00220F8BD06680D2A0AD2AF
:1004C000376BD21F02EB820293409F430B6893402D
:1004D0001F43376309E0F76A0D3A02EB820293404B
:1004E0009F430B6893401F43F7620A68072306681F
:1004F0000A2A0AD3F7680A3A02EB420293409F4362
:100500008B6893401F43F76008E0376902EB4202B3
:1005100093409F438B6893401F4337610A68102ABA
:1005200001D0112A20D1124B02689A4217D1936848
:100530001B0219D4936843F40003936009681029DF
:1005400012D10C490C4A0968B1FBF2F101EB8101AF
:10055000490000E0491E00910029FBD104E0816AB6
:1005600041F020018162012480F824502046F8BD2A
:10057000002401401000002040420F00704770B579
:100580000446006806684568A90625D5B10723D545
:10059000A16AC90603D4A16A41F40071A16281680D
:1005A000C1F34241072910D1217B71B9416821F083
:1005B00020014160A06A20F48070A062A06AC0049B
:1005C00003D4A06A40F00100A0622046FFF7D6FFE6
:1005D00021686FF01200086028062ED570072CD510
:1005E000A06AC00603D4A06A40F40050A06220684C
:1005F0008168C1F30231072909D04168490515D442
:100600008168C1F34241072910D1217B71B941684A
:1006100021F080014160A06A20F48050A062A06AAD
:10062000C00503D4A06A40F00100A0622046FFF795
:1006300025FF21686FF00C00086068060CD5F007F4
:100640000AD0A06A40F48030A062204600F096F8FC
:1006500021686FF00100086070BD00002DE9F041D5
:1006600004004FF000057FD0A06A002628B9E6629A
:1006700084F82460204600F083F82046FFF704FE4B
:10068000A16AC90600D420B1A06A40F01000A0629F
:100690006AE0A16A21F4885141F00201A162334964
:1006A00023688B42E16904D1B1F5402F01D14FF4A9
:1006B0000021277B4FF4807C41EA470261680A43AE
:1006C000A168614508D0012906D0002194F814E002
:1006D000BEF1010F02D00AE06146F7E7C7B1A76A91
:1006E00047F02007A762E76A47F00107E7625F6803
:1006F00027F469470F435F60236899681C4F3940AE
:1007000011439960A16861450BD0012909D00CE023
:10071000DFF860E0A7690EEB47370F4347F400614D
:10072000E5E7218A0D05A5F580152168CB6A23F43C
:1007300070032B43CB62216889680F4B19409142AB
:1007400008D1E662A16A21F0020141F00101A16233
:10075000BDE8F081A06A20F0020040F01000A06225
:10076000E06A40F00100E0620120F1E7003C014056
:10077000FDF7E1FF00E0FFFFFE0E1FFF70470000E6
:1007800010B586B00021009101910291039100689B
:10079000214988423DD12148816941F4007181613C
:1007A000816901F400710491816941F01001816156
:1007B000816901F010010491816941F004018161B6
:1007C000816901F004010491816941F008018161AE
:1007D0008069032400F0080004900F20CDE9000494
:1007E00069460F4800F09EFA1020CDE900046946E2
:1007F0000C4800F097FA009469460B48019400F009
:1008000091FA00221146122000F0FEFB122000F0A7
:10081000EDFB06B010BD00000024014000100240B6
:100820000010014000080140000C014010B590F894
:1008300021100022022905D00421816380F82020A4
:10084000012010BD01680B6823F00E030B600168E6
:100850000B6823F001030B6090F84030C46B01215A
:1008600001FA03F3636080F8211080F8202010461D
:1008700010BD00002DE9F05F90F82110002402293E
:1008800003D004218163012485E001680A6822F015
:100890000E020A6001680A6822F001020A603F4EF7
:1008A0003E4FB215DFF8F4C0DFF8F090DFF8ECA0AF
:1008B000DFF8E8B0DFF8E4E00168783F13011502E3
:1008C000ACF1640CA9F15009AAF13C0AABF1280B78
:1008D000AEF1140E4FF48018B14227D9B9420ED0B0
:1008E000614512D049451DD0514518D0594518D001
:1008F000714501D1424615E0294EB14201D1012294
:1009000010E0274E1436B14201D110220AE0244EE5
:100910002836B14206D0224A3C32914201D11A46D1
:1009200000E02A461E49091F0A602BE0B94213D095
:10093000614517D0494522D051451DD059451DD09C
:10094000714501D142461AE0B14202D14FF08072A6
:1009500015E0134EB14201D1012210E0104E1436C1
:10096000B14201D110220AE00D4E2836B14206D024
:100970000B4A3C32914201D11A4600E02A4607490F
:1009800080394A60012180F82110002180F8201070
:10099000416B01B188472046BDE8F09F80000240CE
:1009A000080402402DE9F05FC16B0A6801680B681A
:1009B000046C4FF0040808FA04F8844D844E854F07
:1009C000DFF814C2DFF81492DFF814A2DFF814B2D3
:1009D000DFF814E218EA020F65D05FEA437862D5C7
:1009E0000A68920603D40A6822F004020A60DFF85B
:1009F000F0814FF48062016808F1140813011402B9
:100A0000414524D9A9420DD0B1420FD0B9421AD0E4
:100A1000614515D0494515D0514501D1120312E069
:100A2000594501D104220EE0714501D140220AE06E
:100A30006D4D1435A94206D06B4A2832914201D13E
:100A40001A4600E022466749091F0A6029E0A942C8
:100A500013D0B14215D0B94220D061451BD04945D1
:100A60001BD0514502D14FF4800217E0414502D11D
:100A70004FF0806212E0594501D104220EE0714529
:100A800001D140220AE0584D1435A94206D0564AF9
:100A90002832914201D11A4600E022464B490839DA
:100AA0004A60C16A71E04FF0020808FA04F818EAD7
:100AB000020F70D05FEA83786DD50A68920606D47B
:100AC0000A6822F00A020A60012180F82110DFF88A
:100AD00010814FF40072016808F114081301140228
:100AE000414524D9A9420DD0B1420FD0B9421AD004
:100AF000614515D0494515D0514501D1120312E089
:100B0000594501D102220EE0714501D120220AE0AF
:100B1000354D1435A94206D0334A2832914201D1CD
:100B20001A4600E022462F49091F0A6029E0A9421F
:100B300013D0B14215D0B94220D061451BD04945F0
:100B40001BD0514502D14FF4001217E0414502D1AC
:100B50004FF0007212E0594501D102220EE07145BA
:100B600001D120220AE0204D1435A94206D01E4AA8
:100B70002832914201D11A4600E022461349083931
:100B80004A60002180F82010816A00291CD0BDE84D
:100B9000F05F0847FFE70825A540154214D01A0763
:100BA00012D50A6822F00E020A6090F84020C36B4A
:100BB000012101FA02F25A60816380F821100021BC
:100BC00080F82010016BE0E7BDE8F09F08000240CC
:100BD0001C00024030000240440002405800024025
:100BE0006C000240080402401C04024030B560B1B1
:100BF0001A4B026814219A4209D2194B1344B3FBD1
:100C0000F1F18900016417490AE0012030BD134B5E
:100C10005B421344B3FBF1F1890001640F490839C9
:100C2000C163022180F82110136843F6F0718B43F1
:100C3000F0E901142143D0E902452C432143046922
:100C400021434469214384692143194311600021F0
:100C50004163012242770177084630BD0804024013
:100C6000F8FFFDBF0000024070B5044690F8200078
:100C7000002501280CD0012084F8200094F8216080
:100C80000020012E06D084F820000225284670BDE1
:100C9000022070BD022684F82160A06320680668E7
:100CA00026F0010606602046FFF760FBE06A002898
:100CB0002068016802D041F00E0106E021F0040135
:100CC00001602068016841F00A0101602068016844
:100CD00041F001010160D9E770B5044600F028F940
:100CE0000546601C02D004480078044400F020F956
:100CF000401BA042FAD370BD04000020402802D15E
:100D0000014901200870704722000020044910B5F5
:100D10000A68024202D00860FFF7F0FF10BD000031
:100D2000140401402DE9F84FDFF8C8910024A9F11F
:100D3000040B23460F2709F1040AABF1040ED1E09E
:100D40000125A54006EA0502AA4276D1DFF8A8C12E
:100D50004E68A6EB0C0866452BD00DDC032E34D074
:100D600005DC36B3012E19D0022E2FD11BE0112E37
:100D700016D0122E2AD119E0B8F5881F19D006DC3A
:100D8000B8F5803F15D0B8F5801F1FD111E0B8F538
:100D9000001F0ED0B8F5041F18D10AE0CB6815E08B
:100DA000CB681B1D12E0CB6808330FE0CB680C3317
:100DB0000CE08B682BB1012B4FF0080303D0456189
:100DC00004E0042302E0056100E00023FF2A01D8CB
:100DD000064601E000F104064FEA840501D9A5F1B9
:100DE0002005D6F8008007FA05FC28EA0C0803FA6B
:100DF00005F548EA0508C6F800804D68ED0070D595
:100E00003E4DAE6946F00106AE61AD6924F00306C1
:100E100005F0010500953A4D06EB050CDCF808508D
:100E2000A607360F07FA06F825EA0805DFF8D4808A
:100E3000404503D14FF0000825E052E0DFF8C880BC
:100E4000404502D14FF001081DE0DFF8C080404569
:100E500002D14FF0020816E0DFF8B480404502D11D
:100E60004FF003080FE0DFF8AC80404502D14FF0AF
:100E7000040808E0DFF8A080404502D14FF00508E3
:100E800001E04FF0060808FA06F848EA0508CCF831
:100E900008804D68D9F80060ED024D4601D5164333
:100EA00000E096432E604D68DAF80060AD025546CA
:100EB00001D5164300E096432E604D68DBF80060D4
:100EC000AD035D4601D5164300E096432E604D68A4
:100ED000DEF80060ED03754601D5164300E0964349
:100EE0002E60641C0A681646E2407FF429AFBDE814
:100EF000F88F0000080401400000111000100240AB
:100F00000000014000080140000C014000100140B9
:100F10000014014000180140001C01408068084096
:100F200000D0012070470AB1016170470904FBE756
:100F30000148806870470000040000200248816872
:100F4000027811448160704704000020074810B502
:100F5000016841F010010160032000F075F80F20D6
:100F600000F006F800F024F8002010BD0020024038
:100F700070B50D4D04464FF47A712878B1FBF0F04E
:100F80000A490968B1FBF0F000F0F1FD48B9102CF6
:100F900007D200222146501E00F036F800206C6077
:100FA00070BD012070BD0000040000201000002072
:100FB0000C4808B5816941F001018161816901F046
:100FC00001010091C16941F08051C161C06900F027
:100FD000805000900448416821F0E06141F00071C8
:100FE000416008BD0010024000000140002809DBFC
:100FF00000F01F02012191404009800000F1E02033
:10100000C0F8001170470000F0B40E4B1B680C468E
:10101000C3F30223C3F10705042D00D90425191DCC
:10102000072901D2002300E0DB1E012606FA05F1A4
:10103000491E214099409E40761E16403143F0BC27
:1010400002F0EABE0CED00E0064900F00702086875
:101050004FF6FF03184040EA0220034A104308609D
:10106000704700000CED00E00000FA0510B50146E5
:101070000020284C04292FD00BDC012930D0022974
:1010800029D100F06BF96168C1F38131491C490035
:101090001FE0082920D010291DD161682268D201E3
:1010A00019D51D48C1F38342C903805C0AD5616824
:1010B000194AC1F34041921E515C184AB2FBF1F14A
:1010C000484301E0164948436168490203D440009F
:1010D0000321B0FBF1F010BDBDE8104000F04EB9A7
:1010E000226AC2F30121012903D1920701D5C80365
:1010F00010BD022905D1626A920702D549F6404027
:1011000010BD0329FCD121688903F9D54FF2244091
:1011100010BD000000100240C247000800127A0013
:1011200000093D002DE9F84305460078354CC0071D
:1011300054D0E0690026C00008D4E06940F0805037
:10114000E061E069012600F0805000902E480168BF
:10115000C90512D40168804641F480710160FFF72F
:10116000E7FE074605E000BFFFF7E2FEC01B64286C
:1011700023D8D8F80000C005F6D5206A10F44070D6
:1011800021D0A98801F4407181421CD0206A1F49F6
:10119000012220F440700A6000220A602062C00729
:1011A00011D0FFF7C5FE074641F2883808E000BFBE
:1011B000FFF7BEFEC11B414502D90320BDE8F883FD
:1011C000206A8007F4D5206A696820F440700843DB
:1011D00020621EB1E06920F08050E061287880072D
:1011E00005D56068A96820F440400843606028780D
:1011F000C00605D56068696920F480000843606016
:101200000020DBE700100240007000404004424232
:101210002DE9F0470F46050061D0434E306800F0DD
:101220000700B84209D2306820F007003843306028
:10123000306800F00700B84251D128683B4C810764
:1012400012D5400703D5606840F4E06060602878FC
:10125000000703D5606840F4605060606068A9686A
:1012600020F0F000084360602878C00728D0686844
:10127000012810D02168022810D0890700292EDA11
:10128000616821F0030101436160FFF751FE804670
:1012900041F288390DE021688903EFE78901EDE724
:1012A000FFF746FEA0EB0801494502D90320BDE83F
:1012B000F0876068696800F00C00B0EB810FEFD137
:1012C000306800F00700B8420BD9306820F0070002
:1012D00038433060306800F00700B84201D0012088
:1012E000E5E72878400705D56068E96820F4E06004
:1012F000084360602878000706D56068296920F4F3
:10130000605040EAC100606000F038F86168084A47
:10131000C1F30311515CC8400649086006480068E3
:10132000FFF726FE0020C2E7002002400010024026
:10133000D24700081000002008000020044805499A
:1013400000684968044AC1F30221515CC8407047F3
:101350001000002000100240E24700080448054940
:1013600000684968044AC1F3C221515CC840704713
:101370001000002000100240E24700080E4A5168A9
:101380000E4801F00C03042B11D0082B0FD10C4890
:10139000C1F38343C903C05C0AD55168084AC1F34D
:1013A0004041921E515C054A5043B0FBF1F070473A
:1013B00004494843704700000010024000127A00C0
:1013C000B047000800093D002DE9F84F040070D037
:1013D0002078C04DC00749D06868C0F3810001285B
:1013E00007D06868C0F38100022809D16868C0038B
:1013F00006D52868800339D560680028E7D035E035
:101400006068B0F5803F0BD010B1B0F5A02F11D0BF
:10141000286820F480302860286820F4802002E0CA
:10142000286840F480302860606890B1FFF780FD44
:1014300006460AE0286840F480202860F0E700BFF4
:10144000FFF776FD801B642873D828688003F7D5E2
:101450000CE0FFF76DFD064605E000BFFFF768FDF5
:10146000801B6428F0D828688003F7D420789A4E2F
:1014700080074FF001094FF0000839D5686810F077
:101480000C0F07D06868C0F38100022809D1686892
:10149000C00306D42868800714D52069012808D124
:1014A00010E02069B0B1C6F80090FFF741FD074693
:1014B00005E00AE1FFF73CFDC01B0228C4D82868FC
:1014C0008007F7D52868616920F0F80040EAC1007C
:1014D00028600DE0C6F80080FFF72AFD074604E00B
:1014E000FFF726FDC01B022823D828688007F7D401
:1014F000207800072CD57948A169D9B1C0F80090AF
:10150000FFF716FD074604E0FFF712FDC01B022897
:101510000FD8686A8007F7D571484FF4FA51006810
:10152000B0FBF1F0009000BF0098411E0091FAD28C
:101530000EE080E0C0F80080FFF7FAFC074604E008
:10154000FFF7F6FCC01B022875D8686A8007F7D43D
:101550002078400760D5E8690027C00008D4E86912
:1015600040F08050E861E869012700F08050009069
:101570005C480168C90513D40168834641F4807151
:101580000160FFF7D5FC824606E000BFFFF7D0FC04
:10159000A0EB0A0064284ED8DBF80000C005F5D5A2
:1015A000E06801280AD008B1052813D0286A20F085
:1015B00001002862286A20F0040002E0286A40F056
:1015C00001002862E06841F2883B98B1FFF7B0FC67
:1015D00082460BE0286A40F004002862EEE700BF74
:1015E000FFF7A6FCA0EB0A0159455AD8286A8007E4
:1015F000F6D50CE0FFF79CFC824605E0FFF798FC6F
:10160000A0EB0A0159454CD8286A8007F6D41FB1CF
:10161000E86920F08050E861E06988B36968C1F347
:101620008101022944D00228C6F8608004D0FFF767
:101630007FFC044638E034E0FFF77AFC074604E01C
:10164000FFF776FCC01B02282BD828688001F7D44E
:10165000206AB0F5803F05D16868A16820F40030A9
:1016600008436860D4E908010843696821F47411EB
:1016700008436860C6F86090FFF75AFC044606E02D
:1016800025E000BFFFF754FC001B022809D828689A
:101690008001F7D51BE000BFFFF74AFC001B0228C2
:1016A00002D90320BDE8F88F28688001F4D40EE049
:1016B0000128F7D06868226A00F48031914204D191
:1016C000616A00F47010884201D00120EAE700202E
:1016D000E8E700000010024000004242800442425D
:1016E00010000020007000407047000038B504462C
:1016F000006842688168C9434B0606D5CB0704D110
:10170000D3435B0601D4216C05E08B0708D4D34397
:101710001B0605D4616C01B02046BDE83040084787
:101720008B0601D54B0646D4D3439B0643D44B06C8
:101730000AD494F85130032B3ED0636D43F0040378
:101740006365C36883680093890609D4616D41F0BD
:101750000101616581680091016821F0400101602B
:10176000606D002827D02068416821F0E0014160C9
:10177000012084F85100900722D02068416821F0B0
:1017800003014160104DE06C40B14563E06CFFF730
:1017900071F818B1606D40F040006065A06C0028E1
:1017A00009D04563A06CFFF765F8002803D0606D91
:1017B00040F04000606538BDC1688068009038BD69
:1017C0002046FFF791FF38BD8536000870B504004C
:1017D00009D0606A002540B125616561A56294F871
:1017E000510040B10CE0012070BD6068B0F5827F0F
:1017F000F4D0E561F2E784F85050204600F040F85C
:10180000022084F851002068016821F04001016045
:10181000A088218900F4827001F404410843A18961
:1018200001F400610843217C01F002010843217D9D
:1018300001F001010843218B01F400710843217F6D
:1018400001F03801084394F8201001F080010843AA
:10185000218D01F40051084321680860A06904212A
:1018600001EA1040216848602068C16921F40061E4
:10187000C1616565012084F85100002070BD000041
:1018800070B586B000250646009501950295039532
:1018900000681E49884236D11D49886940F480504D
:1018A0008861886900F480500490886940F00400E1
:1018B00088618869694600F004000490A0200090C7
:1018C00002200190032003901248FFF72BFA134CDB
:1018D000114820601020C4E901058020C4E90305F7
:1018E0006561A5612046E561FFF780F908B1FEF763
:1018F00056FDB4640022114623206662FFF784FB84
:101900002320FFF773FB06B070BD000000300140DC
:10191000001002400008014030000240B8000020E2
:101920002DE9F84F984616468A460446FFF700FB15
:10193000814694F8510001281ED1BAF1000F73D0EE
:10194000002E71D094F85000012815D0012784F89A
:101950005070032084F8510000256565C4F830A05C
:10196000A686E686A563A587E58765642564A068E5
:10197000B0F5004F03D00CE00220BDE8F88F2068DE
:10198000016821F0400101602068016841F4804154
:10199000016020680168490603D4016841F04001F4
:1019A0000160E068B0F5006F606803D048B3012EB5
:1019B00027D047E008B1012E1FD1206B2168008895
:1019C000C86006E020688168890709D5216B09880D
:1019D000C160206B801C2063E08E401EE0860CE01E
:1019E000FFF7A6FAA0EB0901414503D3B8F1FF3F89
:1019F00003D035E0B8F1000F32D0E08E0028E1D1FD
:101A000023E0206B21680078087306E02068816875
:101A100089070AD5216B09780173206B401C20636C
:101A2000E08E401EE0860DE02BE0FFF781FAA0EB90
:101A30000901414503D3B8F1FF3F03D010E0B8F1ED
:101A4000000F0DD0E08E0028E0D14A4641462046E6
:101A500001F068FE08B120206065A06830B109E09F
:101A600084F8517084F85050032086E72068C168DC
:101A70008068009084F8517004F8505F6068002816
:101A8000F3D0012079E7000070B5044690F85100CA
:101A900001281CD1C9B1C2B194F85000012816D058
:101AA000012084F85000032084F85100002565656A
:101AB0002163A286E286A56365642564A587E58720
:101AC000A068B0F5004F04D00DE0012070BD0220E9
:101AD00070BD2068016821F0400101602068016844
:101AE00041F480410160A16C1748C862A16C17489D
:101AF0008862A16C16480863A06C4563E38E226877
:101B0000216B0C32A06CFFF7AFF830B1606D40F084
:101B10001000606584F85050D7E7206801684906D6
:101B200003D4016841F04001016084F850502068FE
:101B3000416841F0200141602068416841F00201A4
:101B40004160002070BD0000B7360008C1360008B3
:101B50009536000800680349884202D102490120F5
:101B6000087070470030014026000020704710B513
:101B7000401EB0F1807F01D3012010BD4FF0E02462
:101B800060610F21601702F047F90020A061072073
:101B90002061002010BD70477047000070B590F8BC
:101BA0003C20012A2CD0012480F83C40022280F8FD
:101BB0003D2003685A689D6822F070060A68324327
:101BC0005A60104B02689A420ED00F4B9A420BD0CB
:101BD000B2F1804F08D00D4B9A4205D00C4B9A427F
:101BE00002D00C4B9A4204D1496825F08003194376
:101BF000916080F83D40002180F83C10084670BD9F
:101C0000022070BD002C014000340140000400405F
:101C100000080040000C004010B5040003D094F808
:101C20003D0010B107E0012010BD002084F83C0009
:101C3000204600F01FF8022084F83D00211D206896
:101C400001F03AFE012084F8460084F83E0084F852
:101C50003F0084F8400084F8410084F8420084F892
:101C6000430084F8440084F8450084F83D000020D7
:101C700010BD000008B5234A01682348914208D1ED
:101C8000C16941F00401C161C06900F00400009025
:101C900008BD1E4A91420ED1C16941F00801C161DF
:101CA000C069002200F00800009011463220FFF7C2
:101CB000ABF9322022E0164A91420ED1C16941F0BF
:101CC0001001C161C069002200F0100000901146AF
:101CD0003620FFF799F9362010E00E4A9142D7D10D
:101CE000C16941F02001C161C069002200F02000FB
:101CF000009011463720FFF787F93720BDE80840EC
:101D0000FFF774B90008004000100240000C0040CA
:101D1000001000400014004090F83D10012901D04F
:101D200001207047022180F83D100168CA6842F026
:101D30000102CA6000680E4988420ED00D498842EF
:101D40000BD0B0F1804F08D00B49884205D00B4929
:101D5000884202D00A49884204D1816801F0070113
:101D6000062903D0016841F001010160002070479D
:101D7000002C0140003401400004004000080040F5
:101D8000000C004070B5044690F83C000025012886
:101D900017D0012684F83C60022084F83D002068BA
:101DA000826822F0770222F47F428260086850281D
:101DB00038D00DDC20284FD005DC90B3102811D18D
:101DC0004AE0022070BD302846D040280AD13BE0CE
:101DD00060282FD070280DD0B0F5805F03D0B0F50B
:101DE000005F12D0012584F83D60002084F83C009B
:101DF000284670BDCB68D1E90121206801F0AAFD19
:101E00002068816841F0770109E0CB68D1E90121C0
:101E1000206801F09FFD2068816841F48041816065
:101E2000E1E719E0CA684968206801F067FE5021BF
:101E3000206806E0CA684968206801F070FE6021E9
:101E4000206801F091FDCEE7CA684968206801F07A
:101E500055FE40212068F4E7226801461046F0E76D
:101E600070472DE9F04104460068C66805694FF0E7
:101E70000007A90713D5B10711D5F91E016101208B
:101E80002077206880698007204602D0FFF7E8FFAE
:101E900004E000F0A5F8204600F037F9277768073E
:101EA00016D5700714D521686FF004000861022070
:101EB00020772068806910F4407F204602D0FFF729
:101EC000CFFF04E000F08CF8204600F01EF92777E1
:101ED000280715D5300713D521686FF00800086171
:101EE000042020772068C0698007204602D0FFF7D1
:101EF000B7FF04E000F074F8204600F006F92777F9
:101F0000E80616D5F00614D521686FF010000861B8
:101F1000082020772068C06910F4407F204602D056
:101F2000FFF79EFF04E000F05BF8204600F0EDF8BC
:101F30002777E80708D0F00706D021686FF0010086
:101F40000861204600F0E2F8280608D5300606D5DC
:101F500021686FF0800008612046FFF71CFE6806CC
:101F600008D5700606D521686FF04000086120464C
:101F700000F01EF9A8060AD5B00608D521686FF052
:101F8000200008612046BDE8F041FFF705BEBDE82E
:101F9000F081000000B585B000210091019102910F
:101FA000039100680B49884212D10B48816941F0C6
:101FB000080181618069694600F0080004904FF4CF
:101FC000407000900220019003900448FEF7AAFEA2
:101FD00005B000BD0008004000100240000C0140A8
:101FE000704770B5044690F83C0000260D46012865
:101FF0000FD0012084F83C006AB1042A1DD0082AC1
:102000002FD00C2A3FD00126002084F83C00304617
:1020100070BD022070BD206801F0AEFC20688169AF
:1020200041F0080181612068816921F0040181612A
:10203000206881692A69114311E0206801F0CCFC15
:102040002068816941F4006181612068816921F41F
:1020500080618161206881692A6941EA0221816188
:10206000D2E7206801F0EEFC2068C16941F0080168
:10207000C1612068C16921F00401C1612068C169A2
:102080002A69114311E0206801F010FD2068C16940
:1020900041F40061C1612068C16921F48061C161BE
:1020A0002068C1692A6941EA0221C161ACE710B523
:1020B000040003D094F83D0010B107E0012010BDEA
:1020C000002084F83C00204600F01EF8022084F82E
:1020D0003D00211D206801F0EFFB012084F846003F
:1020E00084F83E0084F83F0084F8400084F8410002
:1020F00084F8420084F8430084F8440084F84500E2
:1021000084F83D00002010BD7047704730B5224A6A
:102110000168012314680022A14229D11F4C2049E3
:1021200025783DB90D786D1CEDB20D70052D01D1EE
:1021300023700A701B4CE578012D01D125782DB153
:102140004A70194C94F86F504DB111E04D786D1CE8
:10215000EDB24D701E2DF4D14A702370F1E78D78E9
:102160006D1CEDB28D70642D02D18A7084F86F30D1
:10217000094900684831096888420BD10B488178C9
:10218000002907D00178491CC9B20170082901D380
:102190008270C37030BD0000440100202000002088
:1021A0000000002014000020080A00203C0300204A
:1021B0007047704770470000F8B50168044608682A
:1021C000CA684B6910F00F0F4FF0000559D003F0AB
:1021D000010602F49077374365D0C10705D0D105D9
:1021E00003D5616C41F001016164410705D5D90750
:1021F00003D0616C41F002016164810705D5D90704
:1022000003D0616C41F004016164010707D502F05D
:102210002001314303D0616C41F008016164616CBD
:1022200000293AD0800604D5900602D5204601F058
:10223000BEFC20684069616CC0F38010090700D4BF
:1022400060B3204601F08CFC20684069400621D52F
:102250002068143050E8001F21F0400140E80012CF
:10226000002AF5D1E06BA8B16D494163E06BFEF740
:1022700001FB002811D0E06B416B01B0BDE8F040DC
:10228000084783060FD593060DD52046BDE8F840D4
:1022900001F08DBC2046FFF78DFFF8BD2046FFF70B
:1022A00089FF6564F8BD266B2023012E7CD1C6060C
:1022B0007AD5D60678D508684868009048694FF006
:1022C0000206400640D5E16B086840680004000C37
:1022D000E8D0A28D8242E5D9E085886920282DD0FA
:1022E00020680C3050E8001F21F4807140E8001293
:1022F000002AF5D12068143050E8001F21F00101B8
:1023000040E80012002AF5D12068143050E8001F80
:1023100021F0400140E80012002AF5D184F8423053
:10232000256320680C3050E8001F21F0100140E8C0
:102330000012002AF5D1E06BFEF778FA6663A08DF3
:10234000E18D401A81B22AE0A08DE18D401A81B260
:10235000E08D0028A6D00029A4D022680C3252E8D3
:10236000000F20F4907042E80007002FF5D120689C
:10237000143050E8002F22F0010240E80027002F1F
:10238000F5D184F84230256320680C3050E8002FE6
:1023900022F0100240E80023002BF5D166632046AE
:1023A000FFF707FFF8BDFFE705062BD5150629D572
:1023B00094F841002128F5D1A068B0F5805F01D1E3
:1023C0002069B0B1206A411C216221680078486010
:1023D000E08C401E0004000CE084E3D12068C1685A
:1023E00021F08001C1602068C16841F04001C160F6
:1023F000D8E7206A0088C0F308004860206A801C83
:102400002062E5E74006CDD55006CBD5CA68204608
:1024100022F04002CA6084F8413000F07FF9C1E741
:10242000513B000870B5040004D094F84100002529
:1024300010B106E0012070BD84F84050204600F045
:1024400023F8242084F841002068C16821F4005159
:10245000C160204601F00CFC2068016921F4904124
:1024600001612068416921F02A0141612068C16849
:1024700041F40051C1606564202084F8410084F873
:1024800042006563002070BDF0B585B00024009463
:1024900001940294039403685848574E051502218D
:1024A0000322C714B34225D1C36943F40023C36197
:1024B000C36903F400230493836943F01003836129
:1024C0008069CDE9005100F01000CDE903204C4DAA
:1024D00069462846FEF726FCCDE900746946284681
:1024E0000294FEF71FFC002211463420FEF78CFDFB
:1024F000342029E0DFF80CC1434E634528D18369BD
:1025000043F480438361836903F4804304938369C4
:1025100043F0040383618069039200F00400049097
:102520007015CDE9000169463046FEF7FBFBCDE9A9
:102530000054694630460294FEF7F4FB002211462F
:102540002520FEF761FD2520FEF750FD05B0F0BD0A
:10255000DFF8B8C0634526D1C36943F40033C361D3
:10256000C36903F400330493836943F00403836174
:102570008069039200F0040004900420CDE900017A
:1025800069463046FEF7CEFB0820CDE900046946D7
:1025900030460294FEF7C6FB002211462620FEF7C5
:1025A00033FD2620D0E71A4EB342CFD1C36943F49E
:1025B0008023C361C36903F480230493836943F0D8
:1025C000080383618069CDE9005100F00800CDE97E
:1025D0000320104D69462846FEF7A4FBCDE90074A0
:1025E000694628460294FEF79DFB002211462720EB
:1025F000FEF70AFD2720A7E7004C0040001002402C
:102600000010014000380140000801400044004033
:1026100000480040000C014090F84230202B01D0CF
:102620000220704721B11AB10023036301F07CBB83
:102630000120704700680E49884218D10D48C178C2
:10264000012914D00C49096849684378021D99543E
:1026500041780023491CC9B241700370012901D19E
:1026600001238370114401220348FFF7D5BF70474F
:10267000004400403C030020AC0200202DE9F84358
:10268000044690F84100984616460D46202802D090
:102690000220BDE8F88385B17EB10020606421206E
:1026A00084F84100FEF744FCA6848146E684A068D5
:1026B0002027B0F5805F02D003E00120E9E7206920
:1026C00010B12E4600250EE000260CE080212046A9
:1026D00001F045FBA8B9C6B116F8010B21684860A6
:1026E000E08C401EE084E08C4B464FF00002CDF8B9
:1026F00000800028EAD14FF04001204601F02FFB76
:1027000040B184F841700320C3E735F8020BC0F3F1
:102710000800E3E784F841700020BAE77047FEE75D
:102720002DE9F047642401F0D3FCDFF88080204ECF
:102730004FF480754FF4007929464046FEF7EEFBD2
:10274000074649463046FEF7E9FB47EA4007294677
:102750003046FEF7E3FB47EA800780213046FEF76C
:10276000DDFB47EAC00740213046FEF7D7FB47EACA
:102770000010C7B2641EE4B20A2001F03BFD1E2F18
:1027800006D03CB101F0ACFCBDE8F04701F092BCD2
:10279000002CD1D107480121C1700421817001F0C2
:1027A00089FC4FF4FA7001F025FDEDE700080140C7
:1027B000001001401400002010B501F089FC1E49F2
:1027C0001E48CA784AB18978012910D0022916D04A
:1027D000032919D0042929D121E0C178642901D223
:1027E000491DC17001F07CFF01F0E0FF1EE001789F
:1027F000062901D2491C017001F00EFD16E00121ED
:10280000417001F0ADFE11E08178491CC9B28170C0
:10281000032901D30321817001F01EFF06E08179B5
:10282000782901D2491C817101F02CFC01F042FC95
:1028300003490020087010BD14000020180000207B
:102840002000002010B501F043FC0F4CA0780128B7
:102850000ED0022810D0032813D0401CA0700120F5
:1028600084F8030001F026FC08490020087010BD20
:1028700001F04AFF022002E001F046FF0320A070B1
:10288000F0E701F011FEEDE7140000202000002029
:1028900010B501F01DFC1D491D480024CA784AB13D
:1028A0008978012910D0022915D0032917D00429CD
:1028B00027D11FE0C178142901D9491FC17001F047
:1028C0000FFF01F073FF1CE0017809B1491E017090
:1028D00001F0A2FC15E0447001F042FE11E08178A5
:1028E000491EC9B28170012901D80121817001F00E
:1028F000B3FE06E08179142901D9491E817101F0E6
:10290000C1FB01F0D7FB0348047010BD1400002088
:1029100018000020200000202DE9F047642401F079
:10292000D7FBDFF88C80234E4FF480754FF400798D
:1029300029464046FEF7F2FA074649463046FEF77A
:10294000EDFA47EA400729463046FEF7E7FA47EA3C
:10295000800780213046FEF7E1FA47EAC0074021B0
:102960003046FEF7DBFA47EA0010C7B2641EE4B255
:102970000A2001F03FFC0F2F09D054B101F094FD63
:1029800001F098FB0C4900200870BDE8F087002C8E
:10299000CED10A484179C1F10101417101F0C2FE75
:1029A00001F088FB4FF4FA7001F024FCE8E7000026
:1029B0000008014000100140200000201800002005
:1029C0002DE9F04104461D4616460F462A2000F028
:1029D000D5FA204600F0EEFA304600F0EBFA2B2054
:1029E00000F0CCFA384600F0E5FA284600F0E2FAAA
:1029F000BDE8F0412C2000F0C1BA000070B5040A17
:102A0000C5B20021EF2340F23F120846FFF7D8FF7E
:102A10000E4900204FF4407201F8104001EB4003D2
:102A2000401C80B25D709042F6D3012240210848DC
:102A3000FEF779FA00244FF4C0652946034800F0F8
:102A4000ABF9641CA4B2642CF7D370BD0804002059
:102A5000000801402DE9FE4F4FF00008141A4746C8
:102A6000454699421FD1FFF7ABFF0C980C9A010A1B
:102A70003148D2B206E000BF00F8151000EB450364
:102A80006D1C5A70AC42F7D8012240212B48FEF74A
:102A90004AFA4FF6FF7000EA440103B02648BDE849
:102AA000F04F00F079B9CDE900105E1A4FF0FF3019
:102AB000002C02DD4FF0010102E003D14FF00001D4
:102AC0008B4602E08346C4F10004002E02DD4FF085
:102AD000010002E003D14FF00000824602E082468E
:102AE000C6F10006B44201DD254600E03546681C0B
:102AF0004FF0000902901AE000980C9A81B20198F8
:102B000080B200F01DF8A0443744A84505DD0199C6
:102B1000A8EB050801EB0B000190AF4203DD009824
:102B20007F1B5044009009F101001FFA80F90299BF
:102B30008945E1DDBDE8FE8F080400200008014062
:102B400010B514460B460246FFF73AFF2046BDE893
:102B5000104000F02FBA00002DE9F047141A5F1A58
:102B6000641C7F1C7C43002564004FF4C068089EF1
:102B7000444502D9A4F5C0654446FFF721FF370A52
:102B8000DFF84C90DFF84CA0F6B20020494606E092
:102B900001F8107001EB4002401C567080B2B0EB9F
:102BA000540FF5D3012240215046FEF7BCF9A1B2E3
:102BB000074800F0F1F8002D07D0454502D9A5F5EA
:102BC000C065E2E72C460025DFE7BDE8F08700009E
:102BD000080400200008014010B56A4C00221021B2
:102BE0002046FEF7A0F90C20FEF776F8012210210E
:102BF0002046FEF798F90C20FEF76EF8112000F041
:102C0000BDF90C20FEF768F8362000F0B7F9A020D7
:102C100000F0C2F93A2000F0B1F9652000F0BCF9EB
:102C2000B22000F0ABF90C2000F0B6F90C2000F057
:102C3000B3F9002000F0B0F9332000F0ADF93320F3
:102C400000F0AAF9B72000F099F9722000F0A4F979
:102C5000BB2000F093F93D2000F09EF9C02000F069
:102C60008DF92C2000F098F9C22000F087F901209E
:102C700000F092F9C32000F081F9192000F08CF9DE
:102C8000C42000F07BF9202000F086F9C62000F077
:102C900075F90F2000F080F9D02000F06FF9A42022
:102CA00000F07AF9A12000F077F9E02000F066F951
:102CB000D02000F071F9042000F06EF90D2000F032
:102CC0006BF9112000F068F9132000F065F92B2052
:102CD00000F062F93F2000F05FF9542000F05CF949
:102CE0004C2000F059F9182000F056F90D2000F0A2
:102CF00053F90B2000F050F91F2000F04DF923206C
:102D000000F04AF9E12000F039F9D02000F044F950
:102D1000042000F041F90C2000F03EF9112000F0F1
:102D20003BF9132000F038F92C2000F035F93F2052
:102D300000F032F9442000F02FF9512000F02CF976
:102D40002F2000F029F91F2000F026F91F2000F0A5
:102D500023F9202000F020F9232000F01DF9212084
:102D600000F00CF9292000F009F90021EF2340F2CE
:102D70003F120846FFF724FEBDE810400020FFF791
:102D80003DBE0000001001400246012000E050431B
:102D9000491EC9B2FBD2704700F064BC2DE9F84F60
:102DA000203AD6B21C46DDE90A984FF4A072A2EB95
:102DB0005402824254D3C4F1F0028A4250DB0A1911
:102DC000521E93B200EB5402521E92B2FFF7F8FD6E
:102DD000102C17D0202C15D00C2C43D0182C3FD100
:102DE000364906EB46004FF0300B002401EB001A89
:102DF000E0071AF8046051D00427002530064FD5AB
:102E000048464EE0600700D0012000EBD400610886
:102E1000484300F0FF0A2A48002500EB061B00F596
:102E2000BE5000EBC610009018E0102C08D0202CEB
:102E300016D10098465D0027300604D5484603E0C9
:102E40001BF80560F7E7404600F0B4F870067F1CF9
:102E5000060EFFB2082FEFD36D1CEDB25545E4D33B
:102E6000BDE8F88F174806EB46014FF00C0A002426
:102E700000EB810700253E5D300601D5484600E0A5
:102E8000404600F097F870066D1C060EEDB2062D58
:102E9000F2D3641CE4B25445ECD3E1E70827ACE775
:102EA000404600F087F870066D1C060EEDB2BD427C
:102EB000A4D3641CE4B25C459AD3D1E77AA300089A
:102EC0008A9D0008169900082DE9FF4F83B000265F
:102ED000DDE911A9DDF840B01D46804634464FEAD1
:102EE0005B0726E0281B401EC1B20A20FFF74CFFFB
:102EF0000599B1FBF0F00A21B0FBF1F201FB1200E1
:102F000026B9691E8C4201DA38B101263030C2B2CE
:102F100007FB048080B25B4604E007FB048080B2BC
:102F20005B462022CDE900A90499FFF737FF641C16
:102F3000E4B2AC42D6D307B0BDE8F08F70B502441E
:102F4000DDE90454B2F5A07F15D80B44F02B12D85C
:102F50005B1E521E9BB292B2FFF732FD012240214E
:102F60000548FDF7E0FF2846214600F083FBBDE859
:102F7000704001F011BC70BD0008014001B5002295
:102F800040210448FDF7CFFF01216846FFF704FF09
:102F900008BD00000008014001B50122402104489D
:102FA000FDF7C1FF01216846FFF7F6FE08BD0000EE
:102FB0000008014008B500210091010A8DF80010B9
:102FC0008DF80100012240210348FDF7ACFF0221EA
:102FD0006846FFF7E1FE08BD00080140FEB5002588
:102FE0002D48009501952B49029501608915816056
:102FF000057301240475072606614FF460214560BE
:10300000C0E90641FDF72AFB08B1FDF7C8F9092020
:103010008DE8310069462048FDF732FA08B1FDF726
:10302000BEF904240220CDE9004069461A48FDF7A4
:1030300027FA08B1FDF7B3F9032001906946164855
:10304000FDF71EFA08B1FDF7AAF969461248019486
:10305000FDF716FA08B1FDF7A2F9052001906946BF
:103060000D48FDF70DFA08B1FDF799F9062001901A
:1030700069460948FDF704FA08B1FDF790F9694679
:1030800005480196FDF7FCF9002801D0FDF787F906
:10309000FEBD00000024014030000020094808B5B2
:1030A000416941F0010141614069002200F00100E5
:1030B000009011460D20FDF7A7FFBDE808400D2048
:1030C000FDF794BF001002402DE9F04F85B00024B9
:1030D00046480094019402940394816941F01001E0
:1030E0008161816901F010010491816941F0200141
:1030F0008161816901F020010491816941F004013D
:103100008161816901F004010491816941F0080144
:1031100081618069DFF8D89000F0080049F6420527
:103120000490002229464846FDF7FDFEDFF8C4A0C2
:1031300041F23007002239465046FDF7F4FE4FF2C7
:103140003C08002241462C48FDF7EDFEDFF8ACB00C
:10315000002204215846FDF7E6FE009502260125CF
:103160000396CDE9015469464846FDF7DBFD00971B
:103170000396CDE9015469465046FDF7D3FDCDF8DD
:1031800000800396CDE9015469461B48FDF7CAFD4E
:103190004FF47070CDE90004694650460294FDF783
:1031A000C1FD2802CDE90004694648460294FDF7B6
:1031B000B9FD0420CDE90005CDE90246694658462F
:1031C000FDF7B0FD402000900D48CDE901046946AF
:1031D0000948FDF7A7FD002211461720FDF714FF4F
:1031E0001720FDF703FF05B0BDE8F08F0010024087
:1031F0000008014000100140000C01400014014093
:1032000000001110104810B50E4901604FF4827192
:103210004160002102228160C0E903121202C0E96C
:1032200005120822C0E90721416281620A21C162B8
:10323000FEF7CCFA002803D0BDE81040FDF7AFB888
:1032400010BD0000003001406000002030B58DB09E
:1032500000240794089409940A940B941C2168464E
:103260000C94FCF7ACFF284D264828604720C5E9A0
:10327000010440F2E730C5E903042846AC61FEF7DB
:10328000CBFC08B1FDF78BF84FF48050079007A9ED
:103290001D48FEF777FD08B1FDF781F81A48FEF7E3
:1032A00006FF08B1FDF77BF80B940BA916480C94A8
:1032B000FEF774FC08B1FDF772F86020CDE9000458
:1032C00002940822694610480494FEF78AFE08B169
:1032D000FDF765F82868C16921F00801C1610C2279
:1032E00069460948FEF77DFE08B1FDF758F82868E1
:1032F000C16921F40061C1610348FEF74BFE0DB0C6
:1033000030BD000000080040FC00002010B586B071
:1033100000241748009401940294039404941349E0
:10332000059401604721C0E9011442F20F71C0E920
:1033300003148461FEF770FC08B1FDF730F84FF418
:103340008050009069460A48FEF71CFD08B1FDF761
:1033500026F8049404A906480594FEF71FFC0028EB
:1033600001D0FDF71CF806B010BD0000000C0040B5
:10337000440100201CB500240E4800940C4901941F
:1033800001604721C0E9011440F2E7318461C16066
:10339000FEF742FC08B1FDF702F8009469460548C3
:1033A0000194FEF7FBFB002801D0FCF7F8FF1CBDE1
:1033B000001000408C0100201CB500240E48009431
:1033C0000C49019401604721C0E90114092184617D
:1033D000C160FEF721FC08B1FCF7E1FF00946946EB
:1033E00005480194FEF7DAFB002801D0FCF7D7FF6F
:1033F0001CBD000000140040D40100200C4810B592
:103400000A4901604FF4E1314160002181600C22E2
:10341000C160C0E904128161C161FFF703F80028AF
:1034200003D0BDE81040FCF7BABF10BD004C00400F
:103430001C0200200C4810B50A4901604FF4E1312C
:103440004160002181600C22C160C0E904128161E9
:10345000C161FEF7E7FF002803D0BDE81040FCF78C
:103460009EBF10BD00380140640200200C4810B51A
:103470000A4901604FF4E1314160002181600C2272
:10348000C160C0E904128161C161FEF7CBFF002871
:1034900003D0BDE81040FCF782BF10BD00440040DF
:1034A000AC0200200C4810B50A4901604FF4E1312C
:1034B0004160002181600C22C160C0E90412816179
:1034C000C161FEF7AFFF002803D0BDE81040FCF754
:1034D00066BF10BD00480040F4020020FEE7FEE792
:1034E000704700002DE9FF4F834687B005209246C4
:1034F00089460026CDF8180006EB860000EBC601D1
:1035000020489AF8002010F81130934232D100EB95
:1035100041019AF801004A7882422BD1182268466C
:10352000891CFCF733FE0025684600EB45001DF8BA
:1035300015104FF6FF72477802EA81110F430024FD
:103540000BEB0508C4F10B0027FA00F0C00709EBEC
:1035500004001FFA88F180B201D0149A00E00A9AA0
:10356000FFF7EEFA641CE4B20C2CEBD36D1CEDB249
:103570000C2DD9D3761C0698B6B28642BCD30BB0BC
:10358000BDE8F08F94E700082DE9FF4F834689B02E
:103590001520924689460026CDF82000214806EBEA
:1035A00006119AF8002010F81130934232D100EB46
:1035B00041019AF801004A7882422BD120226846C4
:1035C000891CFCF7E3FD0025684600EB45001DF86B
:1035D00015104FF6FF72477802EA01210F430024CD
:1035E0000BEB0508C4F10F0027FA00F0C00709EB48
:1035F00004001FFA88F180B201D0169A00E00C9AFC
:10360000FFF79EFA641CE4B2102CEBD36D1CEDB2F4
:10361000102DD9D3761C0898B6B28642BED30DB011
:10362000BDE8F08FCAE400082DE9F8439846154636
:103630000E460446089F09E043462A462146304686
:103640000097FFF7A1FF1034A4B2AD1C2878002822
:10365000F2D1BDE8F88300000148FEF747B800004A
:10366000600000200A460146FF230148FEF758B9D2
:10367000600000200A4601460148FEF705BA000036
:103680006000002010B5406A0021C187C186FEF7A6
:103690002BF810BD10B5406A01684A6822F0030299
:1036A0004A60416D41F010014165012180F85110DF
:1036B000FEF71AF810BD10B5406AFEF757FA10BDB4
:1036C00038B50546446AFDF733FC024628680068B1
:1036D000800623D42068416821F0200141602068E1
:1036E000416821F0020141606421204600F01AF88F
:1036F00018B1606D40F020006065A068002118B925
:103700002068C26880680090E186012084F851003A
:10371000606D18B12046FDF7E7FF38BD2046FEF783
:1037200019FA38BDF8B515460E460B460092044608
:103730000122022100F010F840B933460022802116
:103740002046009500F008F8002804D0606D40F095
:10375000200060650320F8BD2DE9F8431E46914620
:1037600088460446089DFDF7E3FB401B351AFDF72C
:10377000DFFB074625480068C0F3CB30684338E0DC
:10378000701C37D0FDF7D4FBC01BA84203D215B183
:10379000009860B32CE02068416821F0E0014160AE
:1037A0006068B0F5827F0BD1A068B0F5004F02D001
:1037B000B0F5806F04D12068016821F040010160FC
:1037C000A06AB0F5005F09D12068016821F40051BA
:1037D00001602068016841F400510160012084F813
:1037E0005100002084F850000320BDE8F883002534
:1037F000401E00902068816838EA010004D0002152
:103800004945BDD10020F0E70121F9E71000002073
:103810007047FDF793BB30B595B028216846FCF79B
:10382000CEFC14210AA8FCF7CAFC18210FA8FCF74B
:10383000C6FC01210804CDE90010002502950224F0
:103840000491CDE907404FF4E01009906846FDF778
:10385000BBFD08B172B6FEE70AA90F2081E831006E
:103860004FF48060CDE90D0502210AA8FDF7D0FCD8
:1038700008B172B6FEE74FF4004011900F940FA804
:10388000FDF750FC002801D072B6FEE715B030BD40
:10389000704700000148FEF7E4BA00004401002030
:1038A0000148FEF7DEBA00008C0100200148FEF757
:1038B000D8BA0000D4010020F0B50268204C214D98
:1038C000214E224F224B4FF0804CA04209D098420B
:1038D00007D0604505D0A84203D0B04201D0B8421D
:1038E00004D122F0700E4A6842EA0E02A04209D0CA
:1038F000984207D0604505D0A84203D0B04201D01D
:10390000B84203D122F44075CA682A434D6922F0B7
:1039100080022A4302608A68C2620A688262A04208
:1039200001D0984201D10969016301214161016916
:10393000C90703D0016921F001010161F0BD000058
:10394000002C01400004004000080040000C004032
:103950000034014010B5846842EA032224F47F4415
:103960000A432243826010BD826822F070020A433B
:1039700042F0070181607047F0B5036A026A22F0E5
:103980000102026242688469124E24F073050C68D9
:103990002C4323F002058B682B430D4DA84201D028
:1039A000B04205D123F00807CB683B4323F0040362
:1039B000A84201D0B04205D14D6922F440721543AE
:1039C0008A692A4342608461496841630362F0BDA9
:1039D000002C014000340140F0B5026A036A23F074
:1039E00010030362436884690D6824F4E64444EAE2
:1039F00005248D6822F0200242EA05120F4D104E78
:103A0000A84201D0B04206D1CF6822F0800242EA3B
:103A1000071222F04002A84201D0B04207D14D69FE
:103A200023F4406343EA85038D6943EA85034360D9
:103A30008461496881630262F0BD0000002C01408E
:103A400000340140F0B5026A036A23F48073036214
:103A50004368C46922F4007224F073050C68124EA6
:103A60002C438D6842EA05220E4DA84201D0B04297
:103A700006D1CF6822F4006242EA072222F4806273
:103A8000A84201D0B04207D14D6923F4405343EA24
:103A900005138D6943EA05134360C4614968C16336
:103AA0000262F0BD002C01400034014030B5046AD0
:103AB000026A22F4805202624268C3690D6823F4EC
:103AC000E64343EA05238D6824F4005444EA0534B0
:103AD000084DA84202D0084DA84204D14D6922F4F5
:103AE000804242EA85124260C3614968016404620F
:103AF00030BD0000002C01400034014010B5036AC5
:103B0000046A24F001040462846924F0F00444EAA5
:103B1000021423F00A020A438461026210BD10B548
:103B2000036A046A24F010040462846923F0A00389
:103B300024F4704444EA023243EA011182610162D2
:103B400010BD00000148FEF737BB00001C0200203A
:103B500010B5406A0021C185C184FEF72BFB10BD62
:103B600001680C3151E8002F22F4907241E80023E3
:103B7000002BF5D10168143151E8002F22F0010229
:103B800041E80023002BF5D1016B012909D101681F
:103B90000C3151E8002F22F0100241E80023002BE5
:103BA000F5D1202180F8421000210163704708B54B
:103BB00090F84210222901D0022008BD82684FF4FB
:103BC00080539A4201D1016921B1816A9A421BD086
:103BD0004AB10AE00268816A5268C2F308020A80A8
:103BE000816A891C08E0026972B10268526802F0B9
:103BF0007F020A70816A491C8162C18D491E0904D5
:103C0000090CC18503D01BE002685268F1E7016826
:103C1000CA6822F02002CA600168CA6822F4807271
:103C2000CA6001684A6922F001024A61202180F8D5
:103C3000421000214163026B012A03D0FEF7FAFC17
:103C4000002008BD016301680C3151E8002F22F00B
:103C5000100241E80023002BF5D101680A68D20662
:103C600002D50A6849680091818DFEF7A2FAE7E75C
:103C700070B5044600680169E26821F440511143BF
:103C800001612169A0680843616908432168CA6825
:103C900041F20C639A430243CA6020684169A269F9
:103CA00021F44071114341611E492068884202D1CC
:103CB000FDF754FB01E0FDF741FB00EBC00101EB18
:103CC0000012606864218000B2FBF0F3B3FBF1F3F3
:103CD0006FF018067343B2FBF0F5B2FBF0F605EB9C
:103CE0008305322303EB0515B5FBF1F5B6FBF1F6C1
:103CF00005F0F00505EB0615B2FBF0F6B2FBF0F0AF
:103D0000B0FBF1F06FF01802504306EB800003EBBC
:103D10000010B0FBF1F0216800F00F00284488602B
:103D200070BD00000038014081628285C28500219B
:103D30004164222180F84210016921B10168CA68FA
:103D400042F48072CA6001684A6942F001024A6125
:103D50000068C16841F02001C160002070472DE972
:103D6000F843984617460D460446089E24E0701C0A
:103D700022D0FDF7DDF8A0EB0800B0421AD8CEB192
:103D80002068C168490717D5802D15D0402D13D064
:103D90000168C94309070FD40168002540680090F5
:103DA0002046FFF7DDFE0820606484F840500120C3
:103DB000BDE8F8830320FBE72068006835EA0000CF
:103DC00004D00020B842D2D00020F1E70120F9E76A
:103DD0000148FEF7F1B90000640200200148FEF737
:103DE000EBB90000AC0200200148FEF7E5B9000085
:103DF000F4020020FEE700000FB4054B10B503A944
:103E0000044A029800F028F810BC5DF814FB00008A
:103E1000414200082C0000200907090E002804DB9D
:103E200000F1E02080F80014704700F00F0000F16E
:103E3000E02080F8141D704702E008C8121F08C176
:103E4000002AFAD170477047002001E001C1121F1B
:103E5000002AFBD1704700002DE9FF4F8BB09A4636
:103E60000F460446002606E025280BD052460D9941
:103E70009047641C761C20780028F5D10FB030469E
:103E8000BDE8F08F0025A94601227D4900E00543E9
:103E900014F8013F203B02FA03F00842F7D12078E2
:103EA0002E2817D114F8010F45F004052A280ED04A
:103EB0006FF02F022078A0F1300109290AD809EB10
:103EC000890102EB410100EB0109641CF2E757F89C
:103ED000049B641C20786C280DD004DC4C2812D084
:103EE0006A2811D104E074280DD07A280CD10AE098
:103EF00045F4001507E0617845F48015814202D150
:103F0000641C05F58015641C207869283ED006DC09
:103F10000028B3D063280BD0642804D136E073287E
:103F200010D075285CD052460D999047761CA5E0BC
:103F300017F8040B8DF8000000208DF80100E8460A
:103F4000012003E057F8048B4FF0FF3069074FF072
:103F5000000501D40AE06D1C4D450DDA8542FADBFF
:103F600018F805100029F6D106E06D1C8542FCDB2F
:103F700018F805100029F8D12E4404E018F8010BB8
:103F800052460D9990476D1EF8D277E000200A90B6
:103F9000C5F302504FF00A0B02280CD001CFC11715
:103FA000021E71F100020CDA0023D0EB030063EB78
:103FB00001012D2208E0FF1D27F00707F7E80201A5
:103FC000EEE72A0504D52B228DF82420012203E0F8
:103FD000EA070FD02022F7E70DF12008089218E039
:103FE00000200A90C5F302504FF00A0B022803D0BC
:103FF00001CF00210022EFE7FF1D27F00707F7E8B8
:104000000201F7E75A460A9BFCF7E4F8303208F859
:10401000012D50EA0102F5D1ADEB080000F1200BB3
:10402000680701D44FF00109D94502DDA9EB0B0067
:1040300000E000208146002506E009A85246405DC8
:104040000D9990476D1C761C08988542F5DB04E0BD
:10405000302052460D999047761CB9F10001A9F124
:104060000109F5DC05E018F8010B52460D9990475F
:10407000761CBBF10001ABF1010BF4DC641CFAE629
:10408000092801000EB5084A08491020128809883D
:104090008DE8070006480323362182794FF48270A9
:1040A000FEF712FF0EBD00002A00002028000020AD
:1040B0001800002010B5962000F09CF80022BDE802
:1040C000104004210148FCF72EBF0000000C014005
:1040D000012204210148FCF726BF0000000C01402A
:1040E0002DE9FC41414F424D4FF4FD643879A5F56F
:1040F000FD66082876D2DFE800F0040B222930475D
:10410000565DCDE9005416232E2233211D2005E0F3
:10411000CDE9006416232E2233211D20FEF70EFF69
:10412000CDE9005416232E223321702023E000BF56
:10413000FEF704FF3879401C3871BDE8FC81CDE9F9
:10414000005416232E2233211D200CE0CDE900540B
:1041500016232E2233211D201CE0CDE900641623F6
:104160002E2233211D20FEF7E9FECDE9006416233F
:104170002E2233217020FEF7E1FECDE900541623F4
:104180002E223321C220D3E7CDE9006416232E224C
:1041900033211D20FEF7D2FECDE9005416232E2236
:1041A0003321702014E0CDE9005416232E22332150
:1041B0001D2005E0CDE9006416232E2233211D20A9
:1041C000FEF7BCFECDE9006416232E2233217020B9
:1041D000FEF7B4FECDE9006416232E223321C2205F
:1041E000A6E7FFE7002038718BE7000018000020E9
:1041F0003864000842F2283148434FF0E02148611A
:104200000020886101220A610A69D30701D0D20324
:10421000FAD50861886170470EB5074A4FF4FC6112
:10422000182012888DE8070004480123CA2102786B
:104230005020FEF749FE0EBD2A0000201800002085
:1042400013B54FF6FF73012269460248FEF716FACE
:1042500000981CBD1C020020FEB540F2CC61534802
:10426000CDE900011E231D2203210D20FEF766FE6D
:104270004FF4E1614E48CDE900011E231A460321A7
:104280003720FEF75BFE40F292614A48CDE900011B
:104290001D231A4603216120FEF750FE464C474D70
:1042A0001026208829880096CDE9011003231922C1
:1042B0000A21D720FEF708FE28880090238840A214
:1042C000F5210D20FFF70EF9208829880096CDE909
:1042D0000110032341220A2140F20110FEF7F4FDF0
:1042E0004FF49C713748CDE900010D220C23114693
:1042F00040F21D10FEF722FEFFF7F2FE00F034FA46
:104300002888009023882EA24FF491713920FFF75E
:10431000E9F800F0E5F940F692112B48CDE90001EB
:1043200023231A467121B620FEF708FE2888009044
:10433000238826A2A221C820FFF776F921882888A1
:10434000CDE9000110233A22A12140F20910FEF725
:1043500025FDF1012048CDE9000120231A46C121A5
:104360002A20FEF7EBFDFFF757FF00F0F9F840F6C3
:104370002C211A48CDE900011F232A22C121E62061
:10438000FEF7DCFD00F068F9282348F23044DA003B
:10439000194601200094FEF75DFBB4234FF496729A
:1043A000194614200094FEF755FBFEBDEA470008AD
:1043B000B64E0008BE5500082A0000202800002044
:1043C000B6C800004C8E0008848F0008CAB5CAB178
:1043D000BAC4B5E700000000206C00082084000883
:1043E000094832220121C270417003230370817099
:1043F000072303714171827103490020091F08706E
:1044000048708870C87070471800002038B5244C78
:104410002178012938D161780128C1F10101CAB29E
:1044200020496270098806D002280FD003281AD0CC
:10443000042829D124E0012A02D0FFF7EDFE23E071
:104440000091E2235C22CA21502009E0012A02D017
:1044500000F086F818E00091E123A922C12189200B
:10446000FEF77AFB10E0012A02D000F0F5F80BE02D
:10447000DB2300914FF49B72CB214FF48B70EFE75D
:10448000012A04D0FFF7FEFD0020207038BD46232E
:1044900000914FF48E7236214FF48270E0E70000F5
:1044A000140000202A00002010B500F02DF9044867
:1044B0000021044BC170012283F87020817010BD6F
:1044C00014000020080A002070B52249097801294B
:1044D0001FD10D0229462048FCF720FD1F4E04463F
:1044E00069003046FCF71AFD44EA4004294630468C
:1044F000FCF714FD44EA800480213046FCF70EFDF1
:1045000044EAC00440213046FCF708FD44EA0010AC
:10451000C0B21B2814D007DC0F2815D0172817D1DC
:10452000BDE87040FEF7B4B91D2805D01E280FD194
:10453000BDE87040FEF7F4B8BDE87040FEF73CB946
:10454000BDE87040FEF77EB9BDE87040FEF7E4B903
:1045500070BD000020000020000801400010014054
:104560001CB5094841784FF40060012909D007497A
:10457000CDE9001020231A46C1218920FEF7DEFC78
:104580001CBD0349F4E70000180000202074000857
:10459000207C0008FCF7DAFCFFF73DF9FEF794FDFC
:1045A000FEF77CFDFEF71AFDFEF72CFEFEF74EFE31
:1045B000FEF7ACFEFEF7DEFEFEF7FEFEFEF71EFF88
:1045C000FEF738FFFEF752FFFEF76CFF1448FBF7CB
:1045D000E9FE1448FDF7A0FB1348FDF79DFB1348C7
:1045E000FDF79AFBFEF7F8FAFFF7FAFE4FF4784072
:1045F000FEF704FA4FF49670FFF7FCFD0020FEF77B
:10460000FDF9FFF729FE0AA0FFF7F6FB114C00BFEA
:10461000FFF75AFFE178A078FFF7F8FEF8E700000F
:1046200030000020440100208C010020D401002033
:104630003D3D3D3D3D3D3D3D3D20636F6465207307
:1046400074617274203D3D3D3D3D3D3D3D3D200D3D
:104650000A00000014000020F8B51948194C4FF466
:104660008B718078238840F22716012812D0022807
:104670001BD003280DD14FF6074513A2CB20009580
:10468000FEF782FF0095238810A23146CB20FEF76B
:104690007BFFF8BD4FF4FC650DA2CB200095FEF723
:1046A00073FF009523880BA2EFE74FF6E0750AA28F
:1046B000CB200095FEF768FF0095238807A2E4E76A
:1046C000180000202A000020C7BF0000BEA2000082
:1046D000BDDA0000C4DC0000C6D50000CDA8000093
:1046E0000EB5074A4FF4FC61202012888DE80700C0
:1046F000044803236521C2786E20FEF7E5FB0EBD5A
:104700002A0000201800002010B5FFF785FDFFF7F4
:1047100027FFFFF7A1FFFFF7E3FFBDE8104000F020
:1047200023B800001CB50D484079012809D00C4879
:10473000212355220088009003213720FEF70CFA30
:104740001CBD4FF4E1610748CDE900011E231A4664
:1047500003213720FEF7F2FB1CBD000018000020EB
:104760002A000020B64E00080EB5084A084910205D
:10477000128809888DE80700064803233621C2798C
:104780004FF48270FEF7A0FB0EBD00002A0000204F
:104790002800002018000020034801780029FCD0E0
:1047A00000210170704700002600002070470102C0
:1047B00002030405060708090A0B0C0D0E0F101062
:1047C000010202030405060708090A0B0C0D0E0F6F
:1047D00010100000000000000000010203040607A2
:1047E00008090000000001020304000000000000AE
:1047F00000000000000000000000000100000000B8
:104800000000000000000000000000200020080060
:104810000000002000000800000000000000000070
:104820000000000000000000000000000000000088
:104830000000000000000000000000000000000078
:10484000000008000800000000010801002000200E
:104850000000000000000000000000000000000058
:104860000000000000000000000000000000000048
:104870000000000000000000000000000000000137
:104880000020000000000000000000000000000008
:104890000000000000000000000000000000000018
:1048A0000000000000000000000000000000000008
:1048B0000000002000200000000000000020000098
:1048C00000000000002000000000000000000000C8
:1048D00000000000000000000000000000000000D8
:1048E00000000000000000000000000000200000A8
:1048F0000000000000200021000000000800080166
:1049000000000000000000000000000000000000A7
:104910000000000000000000000000000000000097
:1049200000000020000000000000000001421CE523
:104930002E46266625E613C4006000000000000035
:104940000000000000000000000000000000000067
:104950000000000000000000000000000000000057
:104960000800008002211E072E262D860B422527D7
:1049700026872D8700800000000000000000000056
:104980000000000000000000000000000000000027
:104990000000080000000000000100000A422E296B
:1049A0002DE609A200000020000102C236471403D0
:1049B00000000000000000000000000000000000F7
:1049C00000000000000000000000000000200000C7
:1049D000002100011263266725E601220020000164
:1049E0000000000000001CA6266600200000000059
:1049F00000000000000000000000000000000000B7
:104A000000000000000000010000000012422E071C
:104A10002DE70162000000000020080000000020D7
:104A200013632E471923002000000000000000003F
:104A30000000000000000000000000000000000076
:104A40000020000000010A222D26012100000000A4
:104A50000261010000200001000013A42E48110390
:104A6000000000000000000000000000000008013D
:104A70000000000000000000000100200000000015
:104A8000000000000020000023C52E471304000092
:104A9000000108801DC52D670020000000000000F7
:104AA0000000000000000000000000000000000006
:104AB00000010000118112420020000000000001EE
:104AC0001BE51E6725460081000000601D46266725
:104AD00002220000000000000000000000000000B2
:104AE00000000000000000000800000012232E2635
:104AF00024A600000000000113E4266625080060DB
:104B00000000086015642E071BC5000000000000AF
:104B10000000000000000000000000000000000095
:104B20000800008002422E471E07094000000801CD
:104B300013E5364715450080000000402D062E483D
:104B40001C04000100000000000000000000000044
:104B500000000000000000000001000002422E2AB8
:104B60002E070141000000001C051E651D47004185
:104B7000000000401C6636270C04002000010000E5
:104B80000000000000000000000000000000000124
:104B90000000000009A21E682DE6092300000000A5
:104BA0001C052E4625270040002000000040240759
:104BB0000B44002000000000000000000000000086
:104BC0000000000008000020002000000000250573
:104BD000362801410000080001A026482D2500804C
:104BE00000210000000008000060000000200020FC
:104BF00008010000000000000000000000000001AB
:104C000000000000082000C02E671404000000000F
:104C1000000108C013E50841000008601BC601211F
:104C2000080000000801080000200000000000004B
:104C3000000000000000000000010800000100006A
:104C400009A22E4812E300200020000000000020EE
:104C5000080000A125052E4809E2000000410020BF
:104C600000000040002000000000000000000000E4
:104C70000000000000000801000000C1266613A427
:104C80000801000008000801000100601D642E28D2
:104C900012E10020000000200000000000000000E1
:104CA00000200000000000000000000000200000C4
:104CB00008000000000025861DE601C0002100005C
:104CC000000000E025451E681C25000008000000CB
:104CD00000000000000000000000002000000000B4
:104CE00000000000000000000000000000200001A3
:104CF00001A12E0836481D26130214452E672E47A3
:104D00001B64000000000000000000000000000024
:104D10000020000000200000000000000000000053
:104D20000001002000000000000008010A211D868B
:104D30002E2726872E4725C80A62000000000000A3
:104D40000000000000000001000000000020000042
:104D50000000000000000000000000000000000053
:104D60000000000000000000000001611A2419A3E7
:104D70000080002000000000000000000000000093
:104D80000000000000000000000000000000000023
:104D90000000000000000000000000000000000013
:104DA00000000000002000200020000000000000A3
:104DB00000000000000000000000000000000000F3
:104DC00000000000000000000000000000000000E3
:104DD00000000000000000000000000000000800CB
:104DE00000000000000000000000000000000000C3
:104DF00000000000000000000000000000000000B3
:104E000000000000000000000000000000000000A2
:104E10000000000000000000000000000000000092
:104E20000000000000200000000000000000000062
:104E30000000000000000000000000000000000072
:104E40000000000000000000000000000000000062
:104E50000000000000000000000000000000000052
:104E60000000000000000000000000000000000042
:104E70000000000000000000000000000000000032
:104E80000000000000000000000000000000000022
:104E90000000000000000000000000000000000012
:104EA0000000000000000000000000000000000002
:104EB00000000000000000000000000000000000F2
:104EC00000000000000000000000000000000000E2
:104ED00000000000000000000000000000000000D2
:104EE00000000000000000000000000000000000C2
:104EF00000000000000000000000000000000000B2
:104F000000000000000000000000000000000000A1
:104F10000000000000000000000000000000000091
:104F20000000000000000000000000000000000081
:104F30000000000000000000002000000000000051
:104F40000000000000000000000000000000000061
:104F5000000000010001000000000000000100004E
:104F60000000000000000000000000000000000041
:104F700000000000000000000000002000200000F1
:104F800000000001000000000020000000200020C0
:104F900000200000000000000000000000000000F1
:104FA0000000000000000000000000000000000001
:104FB00000000000000000000000000000000000F1
:104FC000000000200001000100000000002000009F
:104FD00008000000000000000000000000000000C9
:104FE00000000000000000200000000000000000A1
:104FF0000000000000000000002009E21363140418
:105000001CE51BA31AA300C1000000000000004023
:105010000020000000000000000000000000000070
:10502000000000000000000000000000000000027E
:1050300000201B032DE726473627362726462E66F7
:1050400026662E481CA601C10000080000000000D2
:105050000000000000000000000000000000000050
:105060000000000000000000000001002CC72E67B7
:105070002E27142502030922002009620AC314E521
:1050800026472E481363004008010000000000007E
:10509000000000000000000000000001000000000F
:1050A0000AC300E109022DE72E461C6400A100019D
:1050B00000000800002000000800000009A125668B
:1050C000268813E40000000100000000000000003A
:1050D0000000000000000000080000201CC62D8712
:1050E0002586266613E4000000000040080000004A
:1050F0000000000000000000002008601D073628A6
:10510000134200000000000000000000000000004A
:1051100000000020000000001CA52E671E8525C889
:1051200000810000080000200000000000000000D6
:105130000000000000000002008026071E6708E053
:10514000000000000000000000000000000000005F
:105150000000000124A52E472E47266625E7118270
:1051600000000000000000200000000000000020FF
:105170000020000000000A6226681B860020000054
:1051800000000000000000000000000000010021FD
:1051900024A42E8726472D870A230000002000A183
:1051A000098111410982098111A10020000000201C
:1051B000000008001B230AE4002008000000000093
:1051C0000000000000000000080000002C862D28D0
:1051D0000A8200000000000000C0260826A72668FA
:1051E000264726272E272427000000000000000164
:1051F000000100400000002000000000000000004E
:1052000000000020000000200120004000000000FD
:10521000002008000040128413021B0213430B8479
:105220001B0309C20000000000400000000008004D
:10523000080000000000000000000000000008005E
:10524000000000010000000100000000000100005B
:105250000000000000000000000100010020080024
:10526000000000000000000000000001000000003D
:10527000000000000000000000000000000000002E
:10528000000000010000000000000000000012A368
:10529000134213231B2513430B0309420020000074
:1052A00000200000000000A00060000000000000DE
:1052B0000020000000000020082100000000002065
:1052C00000000000000000000180264926672646F5
:1052D00026663627266724A500000001000100C1CC
:1052E000132435A909A100001000000000000000EF
:1052F000000000000000000108A113040A020000E1
:10530000000108010000092201C2098001E101A198
:1053100001A20040004000C113A32606264A2686AB
:1053200001C10000000000000000000000000800B3
:105330000021000000202D882DE700600000000003
:1053400000000000080000400800002000010000EC
:10535000002002C236482E262E472E470962000141
:1053600000000041000000000000000000000000FC
:1053700000201B231EA61C050020080000000020A2
:1053800000000000000100010020002000000800D3
:1053900001A22E682E661E87098208010000000007
:1053A00000000000000000200000000000000020BD
:1053B00024E72646142500000000000000600800D5
:1053C00000000000000000200020006025062648A4
:1053D0001D462E2709A1000000000000000000006B
:1053E00000000000000000000000000000E12607AF
:1053F000264724A600C0000000200000000108018C
:105400000800002001E22E0626471C0400000A4086
:1054100008E1002000000000000000000000000182
:1054200008000000000000000001004025271E8643
:105430002E4723E40A63118309A009A10AE3252664
:1054400026662E28134400200800000000010001F9
:10545000000000000000000000000000000000004C
:10546000000000000000080100200A822D272E48BD
:105470002687266626472E45266726492467096023
:1054800008000000002000000000000000000000F4
:10549000000000000000000000000000000000000C
:1054A0000000000000000020004001611AA41B243D
:1054B00013420B440A4201000020000000000021BA
:1054C00000010000000000000000000000000000DB
:1054D00000000000000000000000000000000000CC
:1054E000000000000000000000000000002000009C
:1054F00000000000000000000000000000000000AC
:10550000000000000000000000000000000000009B
:10551000000000000000000000000000000000008B
:10552000000000000000000000000000000000007B
:10553000000000000000000000000000000000006B
:10554000000000000000000000000000000000005B
:10555000000000000000000000000000000000004B
:10556000000000000000000000000000000000003B
:10557000000000000000000000000000000000002B
:10558000000000000000000000000000000000001B
:10559000000000010000000000000000000000000A
:1055A00000000800000000000000000000000000F3
:1055B00000000000000000000000000000000000EB
:1055C00000000000000000000000000000000000DB
:1055D000000000000020000000000020000000008B
:1055E000000000000000000000200000000000009B
:1055F00000000000000000000000000000000000AB
:105600000000000000000000000000000001000099
:10561000080000000001002200000000080008004F
:10562000000000000000000000000000000000007A
:10563000000000000000000000000000000000006A
:1056400000000020000000000800004000200000D2
:105650000020080100000000000100000000000020
:10566000000000000000000000000000000000003A
:10567000000000000000000000000000000000002A
:1056800008000800000000000000080000000040C2
:1056900000000000002000200000000000000000CA
:1056A00000000000000000000000000000000000FA
:1056B00000000000000000000021000000001000B9
:1056C00070A3790370A218200020080000000000D9
:1056D00000000800000000000000000000000000C2
:1056E00000000000000000000000000000000000BA
:1056F0000020000000010820D166F985F9A6F9A66E
:10570000C146182000000800000000000000000052
:105710000000000000000000000000000000000089
:105720000000000000000000000000001000000069
:105730008904F96780C3202078E4F98888C40000D0
:105740000000000000000020000000000000000039
:105750000000000000000000000000000000000049
:1057600000000000000000003840F9A6A10300007E
:1057700000010000A102F988304000000020000074
:105780000000000000000000000000000000000019
:1057900000200000000000000020000000000000C9
:1057A0000020B904F186080100000000000110216A
:1057B000F186C92400000000002000000000000065
:1057C00000000000000000000000000000000000D9
:1057D000000000200000000000007061F9A768C30D
:1057E0000000284168C00000000068A2F9876082BC
:1057F0000000002000000000000000000000000089
:105800000000000000000000000000000000080090
:1058100000000841E985C1640000000080A4F9C5CA
:1058200060C300000000C145F167100000000000E7
:105830000000000000000000000000000000000068
:1058400000000000000000000800002080E4F9864D
:105850004061000000418883F94580C200000000DB
:105860003881F9A790C3000000000000000000008C
:105870000000000000000000000000000000000028
:10588000080000003040F98698E30820000000007E
:105890007903F9A780C200000000002098E3F9A76F
:1058A0003060000000000000000000000000000068
:1058B0000000000000000000002000000020B125D2
:1058C000F166180000000001000078E3F9A680C32B
:1058D0000000000000001020F167C124000000005B
:1058E0000000000000000000000000000020000098
:1058F00000000000000058A1F98770A2000000001D
:105900000000000080A3F9C678C30000000000007A
:10591000000068A2F9876881000000000000000014
:105920000000000000000000000000000000100067
:10593000E967D9240000000000200000000080A2D8
:10594000F9A688C200000800000000000020C92558
:10595000E9860821000000000000000000000000AF
:1059600000000000000000008901F9863882000173
:1059700000000000000000200840A0C4102000002B
:1059800000000000000000013081F98790E1002054
:1059900008010000000000200000000008000000D6
:1059A0002840F9A7A0E5080000000020080000003A
:1059B00000000001000000000000002000000000C6
:1059C0000000082090E4F9A730410000000000002A
:1059D00000000000000000000000C145E98608004A
:1059E000000000200020000000000000000080C433
:1059F000102000000020080008000000000018200F
:105A0000F946B90510000000000000000000000089
:105A100000006082F16670C1000000000000080014
:105A200000000000000080C4F98778E20001000057
:105A30000000000000200000000068C2F9C850A16A
:105A400008000000002000000000080180E3D1A54C
:105A500000000800000000010020000000200000FD
:105A60003841A0E4286000000800000000000000A9
:105A7000080000000000D18570E30000000008006D
:105A800000000000000170C2C925000000410001B3
:105A900000200800000000000000000000200000BE
:105AA00000000000000000000021000000000001D4
:105AB000C12388C300000000000000000000002097
:105AC00098E4F16758620000000000000000000048
:105AD0000800000000000800000000000000002096
