:020000040800F2
:10000000880E0020490100087D3900086729000892
:100010005D380008A50500089142000800000000B6
:10002000000000000000000000000000AD3C0008DF
:10003000DF050008000000007F390008AF3C000821
:100040006301000863010008630100086301000800
:1000500063010008630100086301000863010008F0
:1000600063010008630100086301000863010008E0
:1000700063010008A9050008630100086301000886
:100080006301000863010008C5040008630100085B
:10009000630100086301000863010008E10500082E
:1000A00063010008630100086301000863010008A0
:1000B0006301000863010008630100086301000890
:1000C000630100086301000863010008F53A0008B5
:1000D000630100086D42000879420008854200086B
:1000E0006301000863010008630100086301000860
:1000F0006301000863010008630100086301000850
:100100006301000863010008313D00086301000835
:10011000E13F0008630100083D3D0008493D00083B
:10012000630100086301000863010008630100081F
:10013000DFF810D000F0A4F900480047614C000837
:10014000AFF30080880E002006488047064800472D
:10015000FEE7FEE7FEE7FEE7FEE7FEE7FEE7FEE777
:10016000FEE7FEE72D3D000831010008202A04DBF0
:10017000203A21FA02F00021704721FA02F3D04020
:10018000C2F12002914008431946704740EA01033A
:100190009B0703D009E008C9121F08C0042AFAD23D
:1001A00003E011F8013B00F8013B521EF9D2704701
:1001B000D2B201E000F8012B491EFBD270470022A9
:1001C000F6E710B513460A4604461946FFF7F0FF56
:1001D000204610BDF0B480EA0102D40F4200B2EB19
:1001E000410F02D20246084611464A0042D0C30DD2
:1001F000DDB2C1F3C752AD1A202D35DAC1F31601B5
:1002000041F4000204B15242C5F1200602FA06F19F
:100210002A411044B3EBD05F23D0C4B1012DA0EB31
:10022000C35009DCF0BC4FF0004202EAC352DBB21B
:1002300000F5000000F0F5B8400000F1807000EB20
:10024000C350A0F1807040EAD170490009E049082C
:1002500041EAC071A0EBC35000F50000400800EB7C
:10026000C350F0BC00F0D4B86142012202EB41015E
:10027000001BF6E7F0BC704781F00041AAE780F070
:100280000040A7E780EA010210B502F000434000F9
:1002900022D04A001FD0010E01EB1261C0F35600BC
:1002A000C2F3560240F4000042F40002A0FB022018
:1002B00000047F39140400D0401C50EA124001D4DD
:1002C0004000491EC2B20C0604EBD010401C40088E
:1002D000802A02D003E0002010BD20F00100002998
:1002E00000DA0020184310BD30B480EA010202F0A9
:1002F000004530F0004221F0004013D090B1C30D12
:10030000D40DC2F31601C0F31600E41A41F4000143
:1003100040F400027D34914201D3641C00E04900A6
:10032000002C02DA30BC002070474FF4000000239C
:10033000914201D3891A034340084FEA4101F7D1A2
:1003400051B1914202D14FF0004105E002D24FF08D
:10035000010101E06FF0010103EBC450284430BCFF
:1003600000F056B8420005D0C0F3C7525242914245
:1003700001DC0020704700EBC1507047962300223B
:10038000114600F04EB820F00040C10DC0F3160039
:1003900040F400007F2901DA00207047962903DC31
:1003A000C1F19601C84070479639884070472DE9E1
:1003B000F05F0546002092469B46884606468146E9
:1003C00040241BE02846414647462246FFF7CEFE22
:1003D00053465A46C01A914110D311461846224638
:1003E00000F060F82D1A67EB01084F462246012005
:1003F000002100F057F817EB00094E41201EA4F130
:100400000104DFDC484631462A464346BDE8F09FFA
:100410000029A8BF7047401C490008BF20F0010018
:10042000704710B4B0FA80FC00FA0CF050EA0104F6
:1004300004BF10BC704749B1CCF1200421FA04F488
:1004400011FA0CF118BF012121430843A3EB0C0161
:10045000CB1D4FEA00614FEA102042BF002010BCC4
:10046000704700EBC35010440029A4BF10BC704774
:10047000401C490008BF20F0010010BC704700007C
:10048000064C074D06E0E06840F0010394E80700E1
:1004900098471034AC42F6D3FFF74EFE24F800081C
:1004A00044F80008202A04DB203A00FA02F1002078
:1004B00070479140C2F1200320FA03F319439040A2
:1004C00070470000014800F07EB9000028000020BD
:1004D00070B5044600688168C943C90717D18168AF
:1004E00021F00101816000F047FE05460AE000BFEF
:1004F00000F042FE401B022804D920688068C043F7
:10050000C00706D020688068C043C007F0D0002034
:1005100070BDA06A40F01000A062E06A40F00100E7
:10052000E062012070BD0000F8B500260446009688
:1005300000688168C943C9072DD0816841F0010175
:100540008160164816490068B0FBF1F000E0401EDB
:1005500000900028FBD100F00FFE054616E000BF1A
:1005600000F00AFE401B022810D920688068C043B2
:10057000C0070BD0A06A40F01000A062E06A40F013
:100580000100E06284F824600120F8BD20688068E2
:10059000C043C007E4D10020F8BD000010000020D7
:1005A00040420F00FEE70000014800F01FBB0000C2
:1005B000B000002030B590F840500124AC40C56B2D
:1005C0006C60046863604368102B036803D0996013
:1005D0000068C26030BD9A600068C16030BD70477D
:1005E000402000F0B7BC72B6FEE70000F8B5002569
:1005F0000446009590F8240001280BD0012084F8CF
:1006000024002046FFF764FF2046FFF78DFF060019
:1006100002D050E00220F8BDA06A20F4885040F0DB
:100620000200A062022000F045FE25490968B1FBE6
:10063000F0F0400000E0401E00900028FBD1206850
:10064000816841F00801816000F096FD074608E0EE
:1006500000F092FDC01B0A2803D9206880680007BB
:1006600015D4206880680007F2D42068816841F0C2
:100670000401816000F080FD074612E000F07CFD7F
:10068000C01B0A280DD920688068400709D5A06AD8
:1006900020F0020040F01000A06284F824500120F5
:1006A000F8BD206880684007E8D4A06A20F0020006
:1006B00040F00100A06284F824503046F8BD0000EC
:1006C0001000002070470000F8B50024009490F856
:1006D00024202546012A12D0012280F824204A68CD
:1006E0001F23072A0DD20668776B521E02EB820287
:1006F00093409F430B6893401F43776319E00220A8
:10070000F8BD06680D2A0AD2376BD21F02EB8202AF
:1007100093409F430B6893401F43376309E0F76A98
:100720000D3A02EB820293409F430B6893401F43B4
:10073000F7620A68072306680A2A0AD3F7680A3AA2
:1007400002EB420293409F438B6893401F43F76044
:1007500008E0376902EB420293409F438B68934065
:100760001F4337610A68102A01D0112A20D1124B89
:1007700002689A4217D193681B0219D4936843F414
:10078000000393600968102912D10C490C4A0968CA
:10079000B1FBF2F101EB8101490000E0491E00913B
:1007A0000029FBD104E0816A41F02001816201242B
:1007B00080F824502046F8BD00240140100000209D
:1007C00040420F00704770B50446006806684568EF
:1007D000A90625D5B10723D5A16AC90603D4A16A04
:1007E00041F40071A1628168C1F34241072910D12F
:1007F000217B71B9416821F020014160A06A20F499
:100800008070A062A06AC00403D4A06A40F0010016
:10081000A0622046FFF7D6FF21686FF01200086043
:1008200028062ED570072CD5A06AC00603D4A06A6E
:1008300040F40050A06220688168C1F302310729AA
:1008400009D04168490515D48168C1F3424107299F
:1008500010D1217B71B9416821F080014160A06A0B
:1008600020F48050A062A06AC00503D4A06A40F0C2
:100870000100A0622046FFF725FF21686FF00C0001
:10088000086068060CD5F0070AD0A06A40F48030F2
:10089000A062204600F096F821686FF00100086021
:1008A00070BD00002DE9F04104004FF000057FD03D
:1008B000A06A002628B9E66284F82460204600F089
:1008C00083F82046FFF704FEA16AC90600D420B1D0
:1008D000A06A40F01000A0626AE0A16A21F4885189
:1008E00041F00201A162334923688B42E16904D1DE
:1008F000B1F5402F01D14FF40021277B4FF4807CCC
:1009000041EA470261680A43A168614508D00129AC
:1009100006D0002194F814E0BEF1010F02D00AE0E5
:100920006146F7E7C7B1A76A47F02007A762E76A01
:1009300047F00107E7625F6827F469470F435F608C
:10094000236899681C4F394011439960A16861453B
:100950000BD0012909D00CE0DFF860E0A7690EEBAD
:1009600047370F4347F40061E5E7218A0D05A5F5F8
:1009700080152168CB6A23F470032B43CB62216876
:1009800089680F4B1940914208D1E662A16A21F0B3
:10099000020141F00101A162BDE8F081A06A20F0EE
:1009A000020040F01000A062E06A40F00100E06246
:1009B0000120F1E7003C0140FDF7E1FF00E0FFFF0F
:1009C000FE0E1FFF7047000010B586B00021009199
:1009D0000191029103910068214988423DD121484B
:1009E000816941F400718161816901F400710491B0
:1009F000816941F010018161816901F01001049168
:100A0000816941F004018161816901F0040104916F
:100A1000816941F0080181618069032400F00800C8
:100A200004900F20CDE9000469460F4800F09EFABB
:100A30001020CDE9000469460C4800F097FA0094B4
:100A400069460B48019400F091FA002211461220E9
:100A500000F0FEFB122000F0EDFB06B010BD000020
:100A60000024014000100240001001400008014035
:100A7000000C014010B590F821100022022905D089
:100A80000421816380F82020012010BD01680B68DB
:100A900023F00E030B6001680B6823F001030B6069
:100AA00090F84030C46B012101FA03F3636080F8D1
:100AB000211080F82020104610BD00002DE9F05FC5
:100AC00090F821100024022903D00421816301241D
:100AD00085E001680A6822F00E020A6001680A686F
:100AE00022F001020A603F4E3E4FB215DFF8F4C01B
:100AF000DFF8F090DFF8ECA0DFF8E8B0DFF8E4E032
:100B00000168783F13011502ACF1640CA9F150099A
:100B1000AAF13C0AABF1280BAEF1140E4FF4801889
:100B2000B14227D9B9420ED0614512D049451DD0F6
:100B3000514518D0594518D0714501D1424615E0AC
:100B4000294EB14201D1012210E0274E1436B142A4
:100B500001D110220AE0244E2836B14206D0224AA2
:100B60003C32914201D11A4600E02A461E49091F33
:100B70000A602BE0B94213D0614517D0494522D015
:100B800051451DD059451DD0714501D142461AE04D
:100B9000B14202D14FF0807215E0134EB14201D143
:100BA000012210E0104E1436B14201D110220AE0A9
:100BB0000D4E2836B14206D00B4A3C32914201D14B
:100BC0001A4600E02A46074980394A60012180F828
:100BD0002110002180F82010416B01B18847204688
:100BE000BDE8F09F80000240080402402DE9F05F5C
:100BF000C16B0A6801680B68046C4FF0040808FABE
:100C000004F8844D844E854FDFF814C2DFF8149247
:100C1000DFF814A2DFF814B2DFF814E218EA020FCA
:100C200065D05FEA437862D50A68920603D40A6801
:100C300022F004020A60DFF8F0814FF4806201685C
:100C400008F1140813011402414524D9A9420DD01A
:100C5000B1420FD0B9421AD0614515D0494515D0DF
:100C6000514501D1120312E0594501D104220EE091
:100C7000714501D140220AE06D4D1435A94206D0DC
:100C80006B4A2832914201D11A4600E02246674958
:100C9000091F0A6029E0A94213D0B14215D0B94218
:100CA00020D061451BD049451BD0514502D14FF49E
:100CB000800217E0414502D14FF0806212E05945B1
:100CC00001D104220EE0714501D140220AE0584DC5
:100CD0001435A94206D0564A2832914201D11A460B
:100CE00000E022464B4908394A60C16A71E04FF082
:100CF000020808FA04F818EA020F70D05FEA837855
:100D00006DD50A68920606D40A6822F00A020A60C3
:100D1000012180F82110DFF810814FF40072016882
:100D200008F1140813011402414524D9A9420DD039
:100D3000B1420FD0B9421AD0614515D0494515D0FE
:100D4000514501D1120312E0594501D102220EE0B2
:100D5000714501D120220AE0354D1435A94206D053
:100D6000334A2832914201D11A4600E022462F49E7
:100D7000091F0A6029E0A94213D0B14215D0B94237
:100D800020D061451BD049451BD0514502D14FF4BD
:100D9000001217E0414502D14FF0007212E05945B0
:100DA00001D102220EE0714501D120220AE0204D3E
:100DB0001435A94206D01E4A2832914201D11A4662
:100DC00000E02246134908394A60002180F82010CB
:100DD000816A00291CD0BDE8F05F0847FFE70825BD
:100DE000A540154214D01A0712D50A6822F00E0247
:100DF0000A6090F84020C36B012101FA02F25A60A8
:100E0000816380F82110002180F82010016BE0E759
:100E1000BDE8F09F080002401C0002403000024084
:100E200044000240580002406C00024008040240A6
:100E30001C04024030B560B11A4B026814219A427A
:100E400009D2194B1344B3FBF1F18900016417492E
:100E50000AE0012030BD134B5B421344B3FBF1F1B8
:100E6000890001640F490839C163022180F821100B
:100E7000136843F6F0718B43F0E901142143D0E984
:100E800002452C4321430469214344692143846979
:100E90002143194311600021416301224277017708
:100EA000084630BD08040240F8FFFDBF00000240C4
:100EB00070B5044690F82000002501280CD00120D0
:100EC00084F8200094F821600020012E06D084F8D8
:100ED00020000225284670BD022070BD022684F83D
:100EE0002160A0632068066826F00106066020469F
:100EF000FFF760FBE06A00282068016802D041F03B
:100F00000E0106E021F0040101602068016841F053
:100F10000A0101602068016841F001010160D9E720
:100F200070B5044600F028F90546601C02D004485C
:100F30000078044400F020F9401BA042FAD370BDB1
:100F400004000020402802D10149012008707047A8
:100F50001A000020044910B50A68024202D0086055
:100F6000FFF7F0FF10BD0000140401402DE9F84F19
:100F7000DFF8C8910024A9F1040B23460F2709F1DB
:100F8000040AABF1040ED1E00125A54006EA0502F2
:100F9000AA4276D1DFF8A8C14E68A6EB0C086645D8
:100FA0002BD00DDC032E34D005DC36B3012E19D046
:100FB000022E2FD11BE0112E16D0122E2AD119E0AD
:100FC000B8F5881F19D006DCB8F5803F15D0B8F504
:100FD000801F1FD111E0B8F5001F0ED0B8F5041F17
:100FE00018D10AE0CB6815E0CB681B1D12E0CB6876
:100FF00008330FE0CB680C330CE08B682BB1012B6E
:101000004FF0080303D0456104E0042302E00561CA
:1010100000E00023FF2A01D8064601E000F10406A3
:101020004FEA840501D9A5F12005D6F8008007FA1A
:1010300005FC28EA0C0803FA05F548EA0508C6F895
:1010400000804D68ED0070D53E4DAE6946F001065A
:10105000AE61AD6924F0030605F0010500953A4D37
:1010600006EB050CDCF80850A607360F07FA06F861
:1010700025EA0805DFF8D480404503D14FF0000889
:1010800025E052E0DFF8C880404502D14FF001086A
:101090001DE0DFF8C080404502D14FF0020816E0A5
:1010A000DFF8B480404502D14FF003080FE0DFF8CD
:1010B000AC80404502D14FF0040808E0DFF8A08082
:1010C000404502D14FF0050801E04FF0060808FA4C
:1010D00006F848EA0508CCF808804D68D9F80060A1
:1010E000ED024D4601D5164300E096432E604D6853
:1010F000DAF80060AD02554601D5164300E096438C
:101100002E604D68DBF80060AD035D4601D51643E7
:1011100000E096432E604D68DEF80060ED037546F2
:1011200001D5164300E096432E60641C0A681646FB
:10113000E2407FF429AFBDE8F88F000008040140C9
:1011400000001110001002400000014000080140A2
:10115000000C014000100140001401400018014043
:10116000001C01408068084000D0012070470AB18F
:10117000016170470904FBE701488068704700007F
:1011800004000020024881680278114481607047A1
:1011900004000020074810B5016841F0100101600B
:1011A000032000F075F80F2000F006F800F024F896
:1011B000002010BD0020024070B50D4D04464FF4D4
:1011C0007A712878B1FBF0F00A490968B1FBF0F0B8
:1011D00000F0F1FD48B9102C07D200222146501E24
:1011E00000F036F800206C6070BD012070BD00007A
:1011F00004000020100000200C4808B5816941F06F
:1012000001018161816901F001010091C16941F031
:101210008051C161C06900F080500090044841686D
:1012200021F0E06141F00071416008BD0010024012
:1012300000000140002809DB00F01F02012191405D
:101240004009800000F1E020C0F800117047000064
:10125000F0B40E4B1B680C46C3F30223C3F1070521
:10126000042D00D90425191D072901D2002300E00F
:10127000DB1E012606FA05F1491E214099409E40D9
:10128000761E16403143F0BC03F028B80CED00E0A8
:10129000064900F0070208684FF6FF03184040EACD
:1012A0000220034A10430860704700000CED00E084
:1012B0000000FA0510B501460020284C04292FD063
:1012C0000BDC012930D0022929D100F06BF96168CB
:1012D000C1F38131491C49001FE0082920D01029A1
:1012E0001DD161682268D20119D51D48C1F383421E
:1012F000C903805C0AD56168194AC1F34041921E56
:10130000515C184AB2FBF1F1484301E016494843E9
:101310006168490203D440000321B0FBF1F010BD25
:10132000BDE8104000F04EB9226AC2F30121012944
:1013300003D1920701D5C80310BD022905D1626A05
:10134000920702D549F6404010BD0329FCD121681F
:101350008903F9D54FF2244010BD0000001002406F
:10136000C850000800127A0000093D002DE9F8433A
:1013700005460078354CC00754D0E0690026C0000F
:1013800008D4E06940F08050E061E069012600F097
:10139000805000902E480168C90512D4016880462B
:1013A00041F480710160FFF7E7FE074605E000BFEA
:1013B000FFF7E2FEC01B642823D8D8F80000C00560
:1013C000F6D5206A10F4407021D0A98801F440714C
:1013D00081421CD0206A1F49012220F440700A601B
:1013E00000220A602062C00711D0FFF7C5FE074641
:1013F00041F2883808E000BFFFF7BEFEC11B41453F
:1014000002D90320BDE8F883206A8007F4D5206A5A
:10141000696820F44070084320621EB1E06920F042
:101420008050E0612878800705D56068A96820F4BD
:101430004040084360602878C00605D56068696947
:1014400020F48000084360600020DBE700100240C9
:1014500000700040400442422DE9F0470F4605006D
:1014600061D0434E306800F00700B84209D23068BE
:1014700020F0070038433060306800F00700B842C1
:1014800051D128683B4C810712D5400703D56068CD
:1014900040F4E06060602878000703D5606840F49D
:1014A000605060606068A96820F0F00008436060E8
:1014B0002878C00728D06868012810D02168022841
:1014C00010D0890700292EDA616821F00301014359
:1014D0006160FFF751FE804641F288390DE02168D6
:1014E0008903EFE78901EDE7FFF746FEA0EB08016E
:1014F000494502D90320BDE8F0876068696800F0BB
:101500000C00B0EB810FEFD1306800F00700B8425B
:101510000BD9306820F0070038433060306800F0A5
:101520000700B84201D00120E5E72878400705D53B
:101530006068E96820F4E06008436060287800078C
:1015400006D56068296920F4605040EAC1006060F7
:1015500000F038F86168084AC1F30311515CC840D3
:101560000649086006480068FFF726FE0020C2E72B
:101570000020024000100240D85000081000002057
:10158000080000200448054900684968044AC1F37E
:101590000221515CC840704710000020001002403A
:1015A000E85000080448054900684968044AC1F346
:1015B000C221515CC840704710000020001002405A
:1015C000E85000080E4A51680E4801F00C03042B45
:1015D00011D0082B0FD10C48C1F38343C903C05C61
:1015E0000AD55168084AC1F34041921E515C054A30
:1015F0005043B0FBF1F07047044948437047000086
:101600000010024000127A00B650000800093D00A8
:101610002DE9F84F040070D02078C04DC00749D0A4
:101620006868C0F38100012807D06868C0F38100B2
:10163000022809D16868C00306D52868800339D517
:1016400060680028E7D035E06068B0F5803F0BD0D7
:1016500010B1B0F5A02F11D0286820F48030286098
:10166000286820F4802002E0286840F48030286058
:10167000606890B1FFF780FD06460AE0286840F4F4
:1016800080202860F0E700BFFFF776FD801B64280C
:1016900073D828688003F7D50CE0FFF76DFD064688
:1016A00005E000BFFFF768FD801B6428F0D82868BC
:1016B0008003F7D420789A4E80074FF001094FF04D
:1016C000000839D5686810F00C0F07D06868C0F3BF
:1016D0008100022809D16868C00306D42868800701
:1016E00014D52069012808D110E02069B0B1C6F8EE
:1016F0000090FFF741FD074605E00AE1FFF73CFDDA
:10170000C01B0228C4D828688007F7D528686169FB
:1017100020F0F80040EAC10028600DE0C6F8008023
:10172000FFF72AFD074604E0FFF726FDC01B02284D
:1017300023D828688007F7D4207800072CD579486B
:10174000A169D9B1C0F80090FFF716FD074604E083
:10175000FFF712FDC01B02280FD8686A8007F7D573
:1017600071484FF4FA510068B0FBF1F0009000BFEF
:101770000098411E0091FAD20EE080E0C0F800808F
:10178000FFF7FAFC074604E0FFF7F6FCC01B02284F
:1017900075D8686A8007F7D42078400760D5E86973
:1017A0000027C00008D4E86940F08050E861E8698B
:1017B000012700F0805000905C480168C90513D4EF
:1017C0000168834641F480710160FFF7D5FC8246D1
:1017D00006E000BFFFF7D0FCA0EB0A0064284ED85B
:1017E000DBF80000C005F5D5E06801280AD008B193
:1017F000052813D0286A20F001002862286A20F00A
:10180000040002E0286A40F001002862E06841F22A
:10181000883B98B1FFF7B0FC82460BE0286A40F0A5
:1018200004002862EEE700BFFFF7A6FCA0EB0A0168
:1018300059455AD8286A8007F6D50CE0FFF79CFC7A
:10184000824605E0FFF798FCA0EB0A0159454CD809
:10185000286A8007F6D41FB1E86920F08050E8615B
:10186000E06988B36968C1F38101022944D0022884
:10187000C6F8608004D0FFF77FFC044638E034E00F
:10188000FFF77AFC074604E0FFF776FCC01B02284E
:101890002BD828688001F7D4206AB0F5803F05D1A5
:1018A0006868A16820F4003008436860D4E9080142
:1018B0000843696821F4741108436860C6F86090B1
:1018C000FFF75AFC044606E025E000BFFFF754FC92
:1018D000001B022809D828688001F7D51BE000BF4B
:1018E000FFF74AFC001B022802D90320BDE8F88F4D
:1018F00028688001F4D40EE00128F7D06868226AD5
:1019000000F48031914204D1616A00F47010884281
:1019100001D00120EAE70020E8E7000000100240C3
:10192000000042428004424210000020007000404B
:101930007047000038B50446006842688168C943B2
:101940004B0606D5CB0704D1D3435B0601D4216CEB
:1019500005E08B0708D4D3431B0605D4616C01B0A6
:101960002046BDE8304008478B0601D54B0646D4DB
:10197000D3439B0643D44B060AD494F85130032B2F
:101980003ED0636D43F004036365C36883680093CE
:10199000890609D4616D41F001016165816800919A
:1019A000016821F040010160606D002827D02068A7
:1019B000416821F0E0014160012084F85100900766
:1019C00022D02068416821F003014160104DE06C95
:1019D00040B14563E06CFFF771F818B1606D40F0FD
:1019E00040006065A06C002809D04563A06CFFF73B
:1019F00065F8002803D0606D40F04000606538BD98
:101A0000C1688068009038BD2046FFF791FF38BD5F
:101A1000213B000870B5040009D0606A002540B180
:101A200025616561A56294F8510040B10CE0012088
:101A300070BD6068B0F5827FF4D0E561F2E784F8AC
:101A40005050204600F040F8022084F851002068F1
:101A5000016821F040010160A088218900F48270B2
:101A600001F404410843A18901F400610843217C89
:101A700001F002010843217D01F001010843218B9F
:101A800001F400710843217F01F03801084394F804
:101A9000201001F080010843218D01F4005108431A
:101AA00021680860A069042101EA104021684860AB
:101AB0002068C16921F40061C1616565012084F875
:101AC0005100002070BD000070B586B000250646AC
:101AD000009501950295039500681E49884236D10C
:101AE0001D49886940F480508861886900F48050FD
:101AF0000490886940F0040088618869694600F0B4
:101B000004000490A0200090022001900320039084
:101B10001248FFF72BFA134C114820601020C4E93B
:101B200001058020C4E903056561A5612046E561E2
:101B3000FFF780F908B1FEF756FDB46400221146A4
:101B400023206662FFF784FB2320FFF773FB06B0B8
:101B500070BD00000030014000100240000801404C
:101B600030000240B00000202DE9F84F984616469C
:101B70008A460446FFF700FB814694F8510001288D
:101B80001ED1BAF1000F73D0002E71D094F850001E
:101B9000012815D0012784F85070032084F85100E3
:101BA00000256565C4F830A0A686E686A563A587EE
:101BB000E58765642564A068B0F5004F03D00CE0AC
:101BC0000220BDE8F88F2068016821F04001016023
:101BD0002068016841F4804101602068016849067D
:101BE00003D4016841F040010160E068B0F5006F86
:101BF000606803D048B3012E27D047E008B1012E1A
:101C00001FD1206B21680088C86006E020688168C9
:101C1000890709D5216B0988C160206B801C20636E
:101C2000E08E401EE0860CE0FFF7A6FAA0EB09016B
:101C3000414503D3B8F1FF3F03D035E0B8F1000FC1
:101C400032D0E08E0028E1D123E0206B21680078BB
:101C5000087306E02068816889070AD5216B097836
:101C60000173206B401C2063E08E401EE0860DE077
:101C70002BE0FFF781FAA0EB0901414503D3B8F14E
:101C8000FF3F03D010E0B8F1000F0DD0E08E002828
:101C9000E0D14A464146204601F092FF08B120209B
:101CA0006065A06830B109E084F8517084F8505044
:101CB000032086E72068C1688068009084F851702E
:101CC00004F8505F60680028F3D0012079E7000035
:101CD00070B5044690F8510001281CD1C9B1C2B1B9
:101CE00094F85000012816D0012084F850000320F9
:101CF00084F85100002565652163A286E286A5630C
:101D000065642564A587E587A068B0F5004F04D019
:101D10000DE0012070BD022070BD2068016821F037
:101D2000400101602068016841F480410160A16CBC
:101D30001748C862A16C17488862A16C16480863EE
:101D4000A06C4563E38E2268216B0C32A06CFFF718
:101D5000AFF830B1606D40F01000606584F850500D
:101D6000D7E720680168490603D4016841F04001C3
:101D7000016084F850502068416841F020014160C2
:101D80002068416841F002014160002070BD000000
:101D9000533B00085D3B0008313B000800680349E5
:101DA000884202D10249012008707047003001408A
:101DB0001E000020704710B5401EB0F1807F01D397
:101DC000012010BD4FF0E02460610F21601702F088
:101DD00085FA0020A06107202061002010BD704717
:101DE0007047000070B590F83C20012A2CD00124E7
:101DF00080F83C40022280F83D2003685A689D68C4
:101E000022F070060A6832435A60104B02689A4208
:101E10000ED00F4B9A420BD0B2F1804F08D00D4B31
:101E20009A4205D00C4B9A4202D00C4B9A4204D1F4
:101E3000496825F080031943916080F83D400021F6
:101E400080F83C10084670BD022070BD002C014097
:101E5000003401400004004000080040000C004035
:101E600010B5040003D094F83D0010B107E0012044
:101E700010BD002084F83C00204600F01FF802202E
:101E800084F83D00211D206801F064FF012084F8E2
:101E9000460084F83E0084F83F0084F8400084F84F
:101EA000410084F8420084F8430084F8440084F838
:101EB000450084F83D00002010BD000008B5234A0D
:101EC00001682348914208D1C16941F00401C16110
:101ED000C06900F00400009008BD1E4A91420ED176
:101EE000C16941F00801C161C069002200F0080029
:101EF000009011463220FFF7ABF9322022E0164A5B
:101F000091420ED1C16941F01001C161C069002246
:101F100000F01000009011463620FFF799F93620A6
:101F200010E00E4A9142D7D1C16941F02001C16150
:101F3000C069002200F02000009011463720FFF712
:101F400087F93720BDE80840FFF774B90008004062
:101F500000100240000C004000100040001400403F
:101F600090F83D10012901D001207047022180F82E
:101F70003D100168CA6842F00102CA6000680E495B
:101F800088420ED00D4988420BD0B0F1804F08D066
:101F90000B49884205D00B49884202D00A49884241
:101FA00004D1816801F00701062903D0016841F0DE
:101FB0000101016000207047002C01400034014005
:101FC0000004004000080040000C004070B50446CA
:101FD00090F83C000025012817D0012684F83C60C9
:101FE000022084F83D002068826822F0770222F403
:101FF0007F4282600868502838D00DDC20284FD0FE
:1020000005DC90B3102811D14AE0022070BD3028C1
:1020100046D040280AD13BE060282FD070280DD050
:10202000B0F5805F03D0B0F5005F12D0012584F8D1
:102030003D60002084F83C00284670BDCB68D1E9A3
:102040000121206801F0D4FE2068816841F0770109
:1020500009E0CB68D1E90121206801F0C9FE2068C0
:10206000816841F480418160E1E719E0CA6849680C
:10207000206801F091FF5021206806E0CA68496895
:10208000206801F09AFF6021206801F0BBFECEE7D6
:10209000CA684968206801F07FFF40212068F4E7A2
:1020A000226801461046F0E770472DE9F0410446EA
:1020B0000068C66805694FF00007A90713D5B10786
:1020C00011D5F91E01610120207720688069800701
:1020D000204602D0FFF7E8FF04E000F0A5F8204614
:1020E00000F037F92777680716D5700714D52168EF
:1020F0006FF004000861022020772068806910F4E6
:10210000407F204602D0FFF7CFFF04E000F08CF8BC
:10211000204600F01EF92777280715D5300713D57C
:1021200021686FF008000861042020772068C069EA
:102130008007204602D0FFF7B7FF04E000F074F8F4
:10214000204600F006F92777E80616D5F00614D5E4
:1021500021686FF010000861082020772068C069AE
:1021600010F4407F204602D0FFF79EFF04E000F00D
:102170005BF8204600F0EDF82777E80708D0F00775
:1021800006D021686FF001000861204600F0E2F8F7
:10219000280608D5300606D521686FF08000086152
:1021A0002046FFF71CFE680608D5700606D5216894
:1021B0006FF040000861204600F01EF9A8060AD51D
:1021C000B00608D521686FF0200008612046BDE800
:1021D000F041FFF705BEBDE8F081000000B585B015
:1021E0000021009101910291039100680B498842FE
:1021F00012D10B48816941F008018161806969460B
:1022000000F0080004904FF440700090022001900C
:1022100003900448FEF7AAFE05B000BD0008004088
:1022200000100240000C0140704770B5044690F861
:102230003C0000260D4601280FD0012084F83C0008
:102240006AB1042A1DD0082A2FD00C2A3FD00126BB
:10225000002084F83C00304670BD022070BD20682C
:1022600001F0D8FD2068816941F008018161206892
:10227000816921F004018161206881692A69114323
:1022800011E0206801F0F6FD2068816941F40061E9
:1022900081612068816921F48061816120688169A0
:1022A0002A6941EA02218161D2E7206801F018FE23
:1022B0002068C16941F00801C1612068C16921F04D
:1022C0000401C1612068C1692A69114311E02068D5
:1022D00001F03AFE2068C16941F40061C1612068E3
:1022E000C16921F48061C1612068C1692A6941EA3C
:1022F0000221C161ACE710B5040003D094F83D00A1
:1023000010B107E0012010BD002084F83C002046F9
:1023100000F01EF8022084F83D00211D206801F025
:1023200019FD012084F8460084F83E0084F83F003F
:1023300084F8400084F8410084F8420084F84300A7
:1023400084F8440084F8450084F83D00002010BD66
:102350007047704730B5224A016801231468002293
:10236000A14229D11F4C204925783DB90D786D1C1B
:10237000EDB20D70052D01D123700A701B4CE5786C
:10238000012D01D125782DB14A70194C94F86B506C
:102390004DB111E04D786D1CEDB24D701E2DF4D194
:1023A0004A702370F1E78D786D1CEDB28D70642D4D
:1023B00002D18A7084F86B30094900684831096895
:1023C00088420BD10B488178002907D00178491C3D
:1023D000C9B20170082901D38270C37030BD0000FA
:1023E0003C01002018000020000000201400002004
:1023F000180A00203403002070477047704700001F
:10240000F8B5016804460868CA684B6910F00F0FF8
:102410004FF0000559D003F0010602F490773743DE
:1024200065D0C10705D0D10503D5616C41F001012C
:102430006164410705D5D90703D0616C41F0020101
:102440006164810705D5D90703D0616C41F00401AF
:102450006164010707D502F02001314303D0616CAC
:1024600041F008016164616C00293AD0800604D50E
:10247000900602D5204601F0E8FD20684069616CB5
:10248000C0F38010090700D460B3204601F0B6FD08
:1024900020684069400621D52068143050E8001FAC
:1024A00021F0400140E80012002AF5D1E06BA8B10C
:1024B0006D494163E06BFEF701FB002811D0E06B32
:1024C000416B01B0BDE8F040084783060FD5930685
:1024D0000DD52046BDE8F84001F0B7BD2046FFF716
:1024E0008DFFF8BD2046FFF789FF6564F8BD266BB8
:1024F0002023012E7CD1C6067AD5D60678D5086869
:102500004868009048694FF00206400640D5E16BEC
:10251000086840680004000CE8D0A28D8242E5D92A
:10252000E085886920282DD020680C3050E8001FF5
:1025300021F4807140E80012002AF5D1206814309F
:1025400050E8001F21F0010140E80012002AF5D1F7
:102550002068143050E8001F21F0400140E80012CC
:10256000002AF5D184F84230256320680C3050E809
:10257000001F21F0100140E80012002AF5D1E06BA5
:10258000FEF778FA6663A08DE18D401A81B22AE0E9
:10259000A08DE18D401A81B2E08D0028A6D00029DF
:1025A000A4D022680C3252E8000F20F4907042E868
:1025B0000007002FF5D12068143050E8002F22F0DA
:1025C000010240E80027002FF5D184F8423025634E
:1025D00020680C3050E8002F22F0100240E8002361
:1025E000002BF5D166632046FFF707FFF8BDFFE734
:1025F00005062BD5150629D594F841002128F5D1DB
:10260000A068B0F5805F01D12069B0B1206A411C9B
:102610002162216800784860E08C401E0004000CB4
:10262000E084E3D12068C16821F08001C1602068A6
:10263000C16841F04001C160D8E7206A0088C0F35A
:1026400008004860206A801C2062E5E74006CDD57E
:102650005006CBD5CA68204622F04002CA6084F8F2
:10266000413000F07FF9C1E7ED3F000870B504008C
:1026700004D094F84100002510B106E0012070BD9F
:1026800084F84050204600F023F8242084F84100CC
:102690002068C16821F40051C160204601F036FD78
:1026A0002068016921F4904101612068416921F0AD
:1026B0002A0141612068C16841F40051C16065642C
:1026C000202084F8410084F842006563002070BD3A
:1026D000F0B585B00024009401940294039403683B
:1026E0005848574E051502210322C714B34225D17D
:1026F000C36943F40023C361C36903F40023049353
:10270000836943F0100383618069CDE9005100F0D3
:102710001000CDE903204C4D69462846FEF726FC03
:10272000CDE90074694628460294FEF71FFC00229A
:1027300011463420FEF78CFD342029E0DFF80CC16F
:10274000434E634528D1836943F4804383618369A1
:1027500003F480430493836943F004038361806935
:10276000039200F0040004907015CDE90001694661
:102770003046FEF7FBFBCDE9005469463046029433
:10278000FEF7F4FB002211462520FEF761FD25200F
:10279000FEF750FD05B0F0BDDFF8B8C0634526D1A7
:1027A000C36943F40033C361C36903F40033049382
:1027B000836943F0040383618069039200F004009D
:1027C00004900420CDE9000169463046FEF7CEFBB7
:1027D0000820CDE90004694630460294FEF7C6FBA6
:1027E000002211462620FEF733FD2620D0E71A4EA0
:1027F000B342CFD1C36943F48023C361C36903F4F7
:1028000080230493836943F0080383618069CDE9E1
:10281000005100F00800CDE90320104D694628461C
:10282000FEF7A4FBCDE90074694628460294FEF742
:102830009DFB002211462720FEF70AFD2720A7E76F
:10284000004C0040001002400010014000380140E0
:10285000000801400044004000480040000C0140D6
:1028600090F84230202B01D00220704721B11AB1DC
:102870000023036301F0A6BC0120704700680E49E5
:10288000884218D10D48C178012914D00C49096833
:1028900049684378021D995441780023491CC9B204
:1028A00041700370012901D1012383701144012279
:1028B0000348FFF7D5BF70470038014034030020BC
:1028C0005C0200202DE9F843044690F84100984648
:1028D00016460D46202802D00220BDE8F88385B1B7
:1028E0007EB100206064212084F84100FEF744FCA2
:1028F000A6848146E684A0682027B0F5805F02D0D8
:1029000003E00120E9E7206910B12E4600250EE022
:1029100000260CE08021204601F06FFCA8B9C6B16A
:1029200016F8010B21684860E08C401EE084E08CC2
:102930004B464FF00002CDF800800028EAD14FF05E
:102940004001204601F059FC40B184F84170032059
:10295000C3E735F8020BC0F30800E3E784F84170E1
:102960000020BAE77047FEE72DE9F047642401F044
:1029700039FEDFF88C80234E4FF480754FF40079D8
:1029800029464046FEF7EEFB074649463046FEF72D
:10299000E9FB47EA400729463046FEF7E3FB47EAF2
:1029A000800780213046FEF7DDFB47EAC007402163
:1029B0003046FEF7D7FB47EA0010C7B2641EE4B208
:1029C0000A2001F019FF0F2F0CD06CB10E49887945
:1029D000401C887101F00EFE02F072FABDE8F0476B
:1029E00001F0F2BD002CCBD108480121C1700421B7
:1029F000817001F0E9FD4FF4FA7001F0FDFEEDE7A2
:102A000000080140001001400004002014000020D4
:102A100010B501F0E7FD1F491F48CA784AB189780F
:102A200001290ED0022914D0032917D0042929D155
:102A300021E00179642901D2491D017102F0FEF9FA
:102A400020E00178062901D2491C017001F00AFF3B
:102A500018E00121417002F0E9F813E08178491C87
:102A6000C9B28170032901D30321817002F0CCF92E
:102A700002F086F906E0017A782901D2491C017238
:102A800001F08AFD02F01CFA01F09EFD03490020CE
:102A9000087010BD14000020000400201800002061
:102AA00010B501F09FFD104CA078012810D002282D
:102AB00012D0032815D0401CA070012084F8030018
:102AC00002F0FEF901F080FD08490020087010BDF9
:102AD00002F0C8F9022002E002F0C4F90320A0705D
:102AE000EEE702F047F8EBE71400002018000020A2
:102AF00010B501F077FD1F491F480024CA784AB17C
:102B00008978012910D0022915D0032917D004296A
:102B100029D121E00179142901D9491F017102F05D
:102B2000CFF902F08BF920E0017809B1491E01705C
:102B300001F098FE17E0447002F078F813E0817815
:102B4000491EC9B28170012901D80121817002F0AA
:102B50005BF902F015F906E0017A142901D9491E42
:102B6000017201F019FD02F0ABF901F02DFD0348EF
:102B7000047010BD14000020000400201800002084
:102B80002DE9F047642401F02DFDDFF89480254EF7
:102B90004FF480754FF4007929464046FEF7E2FA7B
:102BA000074649463046FEF7DDFA47EA4007294620
:102BB0003046FEF7D7FA47EA800780213046FEF715
:102BC000D1FA47EAC00740213046FEF7CBFA47EA80
:102BD0000010C7B2641EE4B20A2001F00DFE1E2FE1
:102BE0000BD064B101F0C6FF02F06AF901F0ECFC11
:102BF0000D4900200870BDE8F087002CCCD10B48AF
:102C0000C179C1F10101C17102F010FA02F058F965
:102C100001F0DAFC4FF4FA7001F0EEFDE6E7000097
:102C200000080140001001401800002000040020AE
:102C30002DE9F04104461D4616460F462A2000F0B5
:102C400043FB204600F05CFB304600F059FB2B2094
:102C500000F03AFB384600F053FB284600F050FBEA
:102C6000BDE8F0412C2000F02FBB000070B5040A35
:102C7000C5B20021EF2340F23F120846FFF7D8FF0C
:102C80000E4900204FF4407201F8104001EB400360
:102C9000401C80B25D709042F6D30122402108486A
:102CA000FEF765FA00244FF4C0652946034800F09A
:102CB000ABF9641CA4B2642CF7D370BD18040020D7
:102CC000000801402DE9FE4F4FF00008141A474656
:102CD000454699421FD1FFF7ABFF0C980C9A010AA9
:102CE0003148D2B206E000BF00F8151000EB4503F2
:102CF0006D1C5A70AC42F7D8012240212B48FEF7D8
:102D000036FA4FF6FF7000EA440103B02648BDE8EA
:102D1000F04F00F079B9CDE900105E1A4FF0FF30A6
:102D2000002C02DD4FF0010102E003D14FF0000161
:102D30008B4602E08346C4F10004002E02DD4FF012
:102D4000010002E003D14FF00000824602E082461B
:102D5000C6F10006B44201DD254600E03546681C98
:102D60004FF0000902901AE000980C9A81B2019885
:102D700080B200F01DF8A0443744A84505DD019954
:102D8000A8EB050801EB0B000190AF4203DD0098B2
:102D90007F1B5044009009F101001FFA80F902994D
:102DA0008945E1DDBDE8FE8F1804002000080140E0
:102DB00010B514460B460246FFF73AFF2046BDE821
:102DC000104000F09DBA00002DE9F047141A5F1A78
:102DD000641C7F1C7C43002564004FF4C068089E7F
:102DE000444502D9A4F5C0654446FFF721FF370AE0
:102DF000DFF84C90DFF84CA0F6B20020494606E020
:102E000001F8107001EB4002401C567080B2B0EB2C
:102E1000540FF5D3012240215046FEF7A8F9A1B284
:102E2000074800F0F1F8002D07D0454502D9A5F577
:102E3000C065E2E72C460025DFE7BDE8F08700002B
:102E4000180400200008014010B56A4C002210212F
:102E50002046FEF78CF90C20FEF762F801221021C3
:102E60002046FEF784F90C20FEF75AF8112000F0F6
:102E70002BFA0C20FEF754F8362000F025FAA0209B
:102E800000F030FA3A2000F01FFA652000F02AFA2C
:102E9000B22000F019FA0C2000F024FA0C2000F007
:102EA00021FA002000F01EFA332000F01BFA332034
:102EB00000F018FAB72000F007FA722000F012FABA
:102EC000BB2000F001FA3D2000F00CFAC02000F019
:102ED000FBF92C2000F006FAC22000F0F5F90120E1
:102EE00000F000FAC32000F0EFF9192000F0FAF921
:102EF000C42000F0E9F9202000F0F4F9C62000F029
:102F0000E3F90F2000F0EEF9D02000F0DDF9A42065
:102F100000F0E8F9A12000F0E5F9E02000F0D4F994
:102F2000D02000F0DFF9042000F0DCF90D2000F0E3
:102F3000D9F9112000F0D6F9132000F0D3F92B2095
:102F400000F0D0F93F2000F0CDF9542000F0CAF98C
:102F50004C2000F0C7F9182000F0C4F90D2000F053
:102F6000C1F90B2000F0BEF91F2000F0BBF92320AF
:102F700000F0B8F9E12000F0A7F9D02000F0B2F994
:102F8000042000F0AFF90C2000F0ACF9112000F0A3
:102F9000A9F9132000F0A6F92C2000F0A3F93F2096
:102FA00000F0A0F9442000F09DF9512000F09AF9BA
:102FB0002F2000F097F91F2000F094F91F2000F057
:102FC00091F9202000F08EF9232000F08BF92120C8
:102FD00000F07AF9292000F077F90021EF2340F280
:102FE0003F120846FFF724FEBDE810400020FFF71F
:102FF0003DBE0000001001400246012000E05043A9
:10300000491EC9B2FBD2704700F07ABD2DE9F84FD6
:10301000203AD6B21C46DDE90A984FF4A072A2EB22
:103020005402824254D3C4F1F0028A4250DB0A199E
:10303000521E93B200EB5402521E92B2FFF7F8FDFB
:10304000102C17D0202C15D00C2C43D0182C3FD18D
:10305000364906EB46004FF0300B002401EB001A16
:10306000E0071AF8046051D00427002530064FD538
:1030700048464EE0600700D0012000EBD400610814
:10308000484300F0FF0A2A48002500EB061B00F524
:10309000BE5000EBC610009018E0102C08D0202C79
:1030A00016D10098465D0027300604D5484603E057
:1030B0001BF80560F7E7404600F022F970067F1C18
:1030C000060EFFB2082FEFD36D1CEDB25545E4D3C9
:1030D000BDE8F88F174806EB46014FF00C0A0024B4
:1030E00000EB810700253E5D300601D5484600E033
:1030F000404600F005F970066D1C060EEDB2062D77
:10310000F2D3641CE4B25445ECD3E1E70827ACE702
:10311000404600F0F5F870066D1C060EEDB2BD429B
:10312000A4D3641CE4B25C459AD3D1E788B3000809
:1031300098AD000824A900082DE9FF4F83B00026B0
:10314000DDE911A9DDF840B01D46804634464FEA5E
:103150005B0726E0281B401EC1B20A20FFF74CFF88
:103160000599B1FBF0F00A21B0FBF1F201FB12006E
:1031700026B9691E8C4201DA38B101263030C2B25C
:1031800007FB048080B25B4604E007FB048080B24A
:103190005B462022CDE900A90499FFF737FF641CA4
:1031A000E4B2AC42D6D307B0BDE8F08F2DE9FC5FA6
:1031B000044600F0FF0910190D46DDE90CA61FFAC0
:1031C00080F8581987B2DDF83CB013E0444503D3CA
:1031D00005EB0A004C4685B2BD4210D20E99CDE9EE
:1031E000001B534629462046FFF710FF04EB5A0008
:1031F00084B2761C3278A2F120005E28E6D9BDE8C0
:10320000FC9F000070B50244DDE90454B2F5A07FD4
:1032100015D80B44F02B12D85B1E521E9BB292B2F3
:10322000FFF706FD012240210548FDF7A0FF2846D3
:10323000214600F06DFCBDE8704001F031BF70BD6B
:10324000000801402DE9F04F87B08246DDE91165A5
:103250000124934689460020DDF8408005E000BF48
:1032600004EB84014C00401CC0B29842F8D31046D5
:10327000FDF789F807462046FDF780F804463846F2
:10328000FDF77CF85946FCF7FAFF2146FCF7FAFFF8
:10329000FDF779F803463A4609A104A801F00AF8B7
:1032A00001AF04A9CDF8008087E862000C2330222A
:1032B00049465046FFF77AFF07B0BDE8F08F00009F
:1032C000256C642E256C640001B500224021044861
:1032D000FDF74DFF01216846FFF796FE08BD00008F
:1032E0000008014001B5012240210448FDF73FFFDD
:1032F00001216846FFF788FE08BD00000008014074
:1033000008B500210091010A8DF800108DF8010028
:10331000012240210348FDF72AFF02216846FFF7FA
:1033200073FE08BD0008014030B503464FF6FF703C
:103330004AF201041A7850400022C50702D084EAFC
:10334000500000E04008521CD2B2082AF5D3491EB2
:103350005B1C11F0FF01EDD130BD0000FEB5002572
:103360002D48009501952B490295016089158160D2
:10337000057301240475072606614FF4602145603A
:10338000C0E90641FDF78EFA08B1FDF72CF90920D6
:103390008DE8310069462048FDF796F908B1FDF740
:1033A00022F904240220CDE9004069461A48FDF7BD
:1033B0008BF908B1FDF717F903200190694616480B
:1033C000FDF782F908B1FDF70EF96946124801943C
:1033D000FDF77AF908B1FDF706F905200190694675
:1033E0000D48FDF771F908B1FDF7FDF806200190D1
:1033F00069460948FDF768F908B1FDF7F4F8694630
:1034000005480196FDF760F9002801D0FDF7EBF8BB
:10341000FEBD00000024014028000020094808B536
:10342000416941F0010141614069002200F0010061
:10343000009011460D20FDF70BFFBDE808400D2060
:10344000FDF7F8BE001002402DE9F04F85B00024D2
:1034500046480094019402940394816941F010015C
:103460008161816901F010010491816941F02001BD
:103470008161816901F020010491816941F00401B9
:103480008161816901F004010491816941F00801C1
:1034900081618069DFF8D89000F0080049F64205A4
:1034A0000490002229464846FDF761FEDFF8C4A0DB
:1034B00041F23007002239465046FDF758FE4FF2E0
:1034C0003C08002241462C48FDF751FEDFF8ACB025
:1034D000002204215846FDF74AFE009502260125E8
:1034E0000396CDE9015469464846FDF73FFD009734
:1034F0000396CDE9015469465046FDF737FDCDF8F6
:1035000000800396CDE9015469461B48FDF72EFD66
:103510004FF47070CDE90004694650460294FDF7FF
:1035200025FD2802CDE90004694648460294FDF7CE
:103530001DFD0420CDE90005CDE902466946584647
:10354000FDF714FD402000900D48CDE901046946C7
:103550000948FDF70BFD002211461720FDF778FE04
:103560001720FDF767FE05B0BDE8F08F00100240A0
:103570000008014000100140000C0140001401400F
:1035800000001110104810B50E4901604FF482710F
:103590004160002102228160C0E903121202C0E9E9
:1035A00005120822C0E90721416281620A21C16235
:1035B000FEF730FA002803D0BDE81040FDF713B83D
:1035C00010BD0000003001405800002030B58DB023
:1035D00000240794089409940A940B941C216846CB
:1035E0000C94FCF7ECFD284D264828604720C5E9DF
:1035F000010440F2E730C5E903042846AC61FEF758
:103600002FFC08B1FCF7EFFF4FF48050079007A99B
:103610001D48FEF7DBFC08B1FCF7E5FF1A48FEF792
:103620006AFE08B1FCF7DFFF0B940BA916480C9457
:10363000FEF7D8FB08B1FCF7D6FF6020CDE9000407
:1036400002940822694610480494FEF7EEFD08B182
:10365000FCF7C9FF2868C16921F00801C1610C228B
:1036600069460948FEF7E1FD08B1FCF7BCFF286890
:10367000C16921F40061C1610348FEF7AFFD0DB0DF
:1036800030BD000000080040F400002010B586B0F6
:10369000002417480094019402940394049413495D
:1036A000059401604721C0E9011442F20F71C0E99D
:1036B00003148461FEF7D4FB08B1FCF794FF4FF4C8
:1036C0008050009069460A48FEF780FC08B1FCF77C
:1036D0008AFF049404A906480594FEF783FB00289A
:1036E00001D0FCF780FF06B010BD0000000C0040C8
:1036F0003C0100201CB500240E4800940C490194A4
:1037000001604721C0E9011440F2E7318461C160E2
:10371000FEF7A6FB08B1FCF766FF00946946054872
:103720000194FEF75FFB002801D0FCF75CFF1CBD95
:1037300000100040840100201CB500240E480094B5
:103740000C49019401604721C0E9011409218461F9
:10375000C160FEF785FB08B1FCF745FF00946946A0
:1037600005480194FEF73EFB002801D0FCF73BFF23
:103770001CBD000000140040CC0100200C4810B516
:103780000A4901604FF4E1314160002181600C225F
:10379000C160C0E904128161C161FEF767FF0028C2
:1037A00003D0BDE81040FCF71EBF10BD004C004028
:1037B000140200200C4810B50A4901604FF4E131B1
:1037C0004160002181600C22C160C0E90412816166
:1037D000C161FEF74BFF002803D0BDE81040FCF7A5
:1037E00002BF10BD003801405C0200200C4810B53B
:1037F0000A4901604FF4E1314160002181600C22EF
:10380000C160C0E904128161C161FEF72FFF002889
:1038100003D0BDE81040FCF7E6BE10BD00440040F8
:10382000A40200200C4810B50A4901604FF4E131B0
:103830004160002181600C22C160C0E904128161F5
:10384000C161FEF713FF002803D0BDE81040FCF76C
:10385000CABE10BD00480040EC020020FEE7000098
:1038600070B5134CE078012821D10025E57011A036
:1038700000F010FD6078801EC1B2201DFFF754FDDE
:1038800001466278A01C1044008840BA81420ED1E3
:1038900020791B280BD16079032802D0042805D198
:1038A00002E000F00FF801E000F03EF8657070BD36
:1038B0003403002061727269766520686572652044
:1038C0000D0A000030B50320154A16490023062BC7
:1038D0001DD2DFE803F003070B11151914186479E2
:1038E0000C7014E0141864794C7010E014182579E9
:1038F0000D7164794C710AE014186479CC7106E09A
:10390000141864798C7002E0141864790C72801CAD
:103910005B1C9BB2C0B2062BD9D30120087530BD09
:10392000340300200004002030B50320114B124A5C
:103930000021062916D2DFE801F0031507150D1145
:103940001C18647954720DE01C182579D5726479BD
:10395000947207E01C186479147303E01C18A4889F
:1039600064BAD481801C491C89B2C0B20529E0D355
:1039700030BD00003403002000040020FEE7704743
:103980002DE9FF4F834687B00520924689460026E1
:10399000CDF8180006EB860000EBC60120489AF827
:1039A000002010F81130934232D100EB41019AF817
:1039B00001004A7882422BD118226846891CFCF704
:1039C000E5FB0025684600EB45001DF815104FF695
:1039D000FF72477802EA81110F4300240BEB0508C0
:1039E000C4F10B0027FA00F0C00709EB04001FFA2E
:1039F00088F180B201D0149A00E00A9AFFF7D8F952
:103A0000641CE4B20C2CEBD36D1CEDB20C2DD9D39D
:103A1000761C0698B6B28642BCD30BB0BDE8F08FD8
:103A2000A2F700082DE9FF4F834689B01520924682
:103A300089460026CDF82000214806EB06119AF8A9
:103A4000002010F81130934232D100EB41019AF876
:103A500001004A7882422BD120226846891CFCF75B
:103A600095FB0025684600EB45001DF815104FF644
:103A7000FF72477802EA01210F4300240BEB05088F
:103A8000C4F10F0027FA00F0C00709EB04001FFA89
:103A900088F180B201D0169A00E00C9AFFF788F9FD
:103AA000641CE4B2102CEBD36D1CEDB2102DD9D3F5
:103AB000761C0898B6B28642BED30DB0BDE8F08F32
:103AC000D8F400082DE9F843984615460E460446FA
:103AD000089F09E043462A46214630460097FFF7F3
:103AE000A1FF1034A4B2AD1C28780028F2D1BDE8A3
:103AF000F88300000148FDF71DBF000058000020BA
:103B00000A460146FF230148FEF72EB85800002060
:103B10000A4601460148FEF7DBB8000058000020C5
:103B200010B5406A0021C187C186FDF701FF10BDB5
:103B300010B5406A01684A6822F003024A60416D8C
:103B400041F010014165012180F85110FDF7F0FEB0
:103B500010BD10B5406AFEF72DF910BD38B5054609
:103B6000446AFDF709FB024628680068800623D4F2
:103B70002068416821F0200141602068416821F0FF
:103B8000020141606421204600F01AF818B1606D0E
:103B900040F020006065A068002118B92068C26864
:103BA00080680090E186012084F85100606D18B1B2
:103BB0002046FDF7BDFE38BD2046FEF7EFF838BDC4
:103BC000F8B515460E460B46009204460122022126
:103BD00000F010F840B933460022802120460095BD
:103BE00000F008F8002804D0606D40F02000606507
:103BF0000320F8BD2DE9F8431E4691468846044649
:103C0000089DFDF7B9FA401B351AFDF7B5FA0746CE
:103C100025480068C0F3CB30684338E0701C37D0CB
:103C2000FDF7AAFAC01BA84203D215B1009860B3F1
:103C30002CE02068416821F0E00141606068B0F547
:103C4000827F0BD1A068B0F5004F02D0B0F5806F35
:103C500004D12068016821F040010160A06AB0F53C
:103C6000005F09D12068016821F4005101602068DB
:103C7000016841F400510160012084F851000020E6
:103C800084F850000320BDE8F8830025401E009012
:103C90002068816838EA010004D000214945BDD17F
:103CA0000020F0E70121F9E7100000207047FDF740
:103CB00069BA30B595B028216846FCF780FA14211E
:103CC0000AA8FCF77CFA18210FA8FCF778FA012162
:103CD0000804CDE900100025029502240491CDE9E5
:103CE00007404FF4E01009906846FDF791FC08B1D9
:103CF00072B6FEE70AA90F2081E831004FF4806018
:103D0000CDE90D0502210AA8FDF7A6FB08B172B6A0
:103D1000FEE74FF4004011900F940FA8FDF726FB2B
:103D2000002801D072B6FEE715B030BD7047000024
:103D30000148FEF7BAB900003C0100200148FEF737
:103D4000B4B90000840100200148FEF7AEB90000BC
:103D5000CC010020F0B50268204C214D214E224FAD
:103D6000224B4FF0804CA04209D0984207D06045CA
:103D700005D0A84203D0B04201D0B84204D122F00D
:103D8000700E4A6842EA0E02A04209D0984207D05B
:103D9000604505D0A84203D0B04201D0B84203D15B
:103DA00022F44075CA682A434D6922F080022A43F2
:103DB00002608A68C2620A688262A04201D09842A8
:103DC00001D109690163012141610169C90703D07A
:103DD000016921F001010161F0BD0000002C0140EA
:103DE0000004004000080040000C00400034014086
:103DF00010B5846842EA032224F47F440A43224334
:103E0000826010BD826822F070020A4342F007010E
:103E100081607047F0B5036A026A22F00102026213
:103E200042688469124E24F073050C682C4323F019
:103E300002058B682B430D4DA84201D0B04205D13D
:103E400023F00807CB683B4323F00403A84201D0CA
:103E5000B04205D14D6922F4407215438A692A4364
:103E600042608461496841630362F0BD002C0140F7
:103E700000340140F0B5026A036A23F010030362C4
:103E8000436884690D6824F4E64444EA05248D6897
:103E900022F0200242EA05120F4D104EA84201D036
:103EA000B04206D1CF6822F0800242EA071222F027
:103EB0004002A84201D0B04207D14D6923F44063CB
:103EC00043EA85038D6943EA850343608461496859
:103ED00081630262F0BD0000002C0140003401400B
:103EE000F0B5026A036A23F4807303624368C4690D
:103EF00022F4007224F073050C68124E2C438D6876
:103F000042EA05220E4DA84201D0B04206D1CF6848
:103F100022F4006242EA072222F48062A84201D021
:103F2000B04207D14D6923F4405343EA05138D692C
:103F300043EA05134360C4614968C1630262F0BD8E
:103F4000002C01400034014030B5046A026A22F4BA
:103F5000805202624268C3690D6823F4E64343EA73
:103F600005238D6824F4005444EA0534084DA84222
:103F700002D0084DA84204D14D6922F4804242EAA1
:103F800085124260C36149680164046230BD00006B
:103F9000002C01400034014010B5036A046A24F08B
:103FA00001040462846924F0F00444EA021423F05A
:103FB0000A020A438461026210BD10B5036A046AF2
:103FC00024F010040462846923F0A00324F47044F4
:103FD00044EA023243EA01118261016210BD00002D
:103FE0000148FEF70DBA00001402002010B5406A27
:103FF0000021C185C184FEF701FA10BD01680C31B2
:1040000051E8002F22F4907241E80023002BF5D1F3
:104010000168143151E8002F22F0010241E8002329
:10402000002BF5D1016B012909D101680C3151E850
:10403000002F22F0100241E80023002BF5D12021AF
:1040400080F8421000210163704708B590F84210D3
:10405000222901D0022008BD82684FF480539A4281
:1040600001D1016921B1816A9A421BD04AB10AE0AB
:104070000268816A5268C2F308020A80816A891C58
:1040800008E0026972B10268526802F07F020A70A9
:10409000816A491C8162C18D491E0904090CC185D0
:1040A00003D01BE002685268F1E70168CA6822F099
:1040B0002002CA600168CA6822F48072CA6001687E
:1040C0004A6922F001024A61202180F84210002151
:1040D0004163026B012A03D0FEF7D0FB002008BD2C
:1040E000016301680C3151E8002F22F0100241E811
:1040F0000023002BF5D101680A68D20602D50A68B0
:1041000049680091818DFEF778F9E7E770B50446BC
:1041100000680169E26821F440511143016121699D
:10412000A0680843616908432168CA6841F20C63CA
:104130009A430243CA6020684169A26921F4407130
:10414000114341611E492068884202D1FDF72AFAD5
:1041500001E0FDF717FA00EBC00101EB0012606807
:1041600064218000B2FBF0F3B3FBF1F36FF01806AB
:104170007343B2FBF0F5B2FBF0F605EB8305322397
:1041800003EB0515B5FBF1F5B6FBF1F605F0F0050F
:1041900005EB0615B2FBF0F6B2FBF0F0B0FBF1F068
:1041A0006FF01802504306EB800003EB0010B0FBE9
:1041B000F1F0216800F00F002844886070BD000015
:1041C0000038014081628285C2850021416422213C
:1041D00080F84210016921B10168CA6842F4807216
:1041E000CA6001684A6942F001024A610068C16818
:1041F00041F02001C160002070472DE9F843984646
:1042000017460D460446089E24E0701C22D0FCF799
:10421000B3FFA0EB0800B0421AD8CEB12068C16845
:10422000490717D5802D15D0402D13D00168C943FB
:1042300009070FD401680025406800902046FFF769
:10424000DDFE0820606484F840500120BDE8F8835A
:104250000320FBE72068006835EA000004D0002056
:10426000B842D2D00020F1E70120F9E70148FEF77B
:10427000C7B800005C0200200148FEF7C1B800008A
:10428000A40200200148FEF7BBB80000EC020020A9
:10429000FEE700000FB4054B10B503A9044A0298CD
:1042A00000F03CF810BC5DF814FB00008D480008DD
:1042B000240000200FB4084B10B504A902AA0398EB
:1042C00000F02CF8044602A9002000F03DF9204639
:1042D00010BC5DF814FB0000494500080907090EF1
:1042E000002804DB00F1E02080F80014704700F0A3
:1042F0000F0000F1E02080F8141D704702E008C8AC
:10430000121F08C1002AFAD170477047002001E04F
:1043100001C1121F002AFBD1704700002DE9FF4F99
:104320008BB09A460F460446002606E025280BD09F
:1043300052460D999047641C761C20780028F5D1D0
:104340000FB03046BDE8F08F0025A94601227D4917
:1043500000E0054314F8013F203B02FA03F0084255
:10436000F7D120782E2817D114F8010F45F0040555
:104370002A280ED06FF02F022078A0F130010929F1
:104380000AD809EB890102EB410100EB0109641C29
:10439000F2E757F8049B641C20786C280DD004DCED
:1043A0004C2812D06A2811D104E074280DD07A2844
:1043B0000CD10AE045F4001507E0617845F480155A
:1043C000814202D1641C05F58015641C207869289F
:1043D0003ED006DC0028B3D063280BD0642804D17B
:1043E00036E0732810D075285CD052460D9990475E
:1043F000761CA5E017F8040B8DF8000000208DF85E
:104400000100E846012003E057F8048B4FF0FF302D
:1044100069074FF0000501D40AE06D1C4D450DDA27
:104420008542FADB18F805100029F6D106E06D1C6C
:104430008542FCDB18F805100029F8D12E4404E071
:1044400018F8010B52460D9990476D1EF8D277E08F
:1044500000200A90C5F302504FF00A0B02280CD03E
:1044600001CFC117021E71F100020CDA0023D0EB5C
:10447000030063EB01012D2208E0FF1D27F0070771
:10448000F7E80201EEE72A0504D52B228DF8242057
:10449000012203E0EA070FD02022F7E70DF1200800
:1044A000089218E000200A90C5F302504FF00A0B62
:1044B000022803D001CF00210022EFE7FF1D27F0E3
:1044C0000707F7E80201F7E75A460A9BFBF76FFF79
:1044D000303208F8012D50EA0102F5D1ADEB0800A9
:1044E00000F1200B680701D44FF00109D94502DD26
:1044F000A9EB0B0000E000208146002506E009A89A
:104500005246405D0D9990476D1C761C0898854277
:10451000F5DB04E0302052460D999047761CB9F146
:104520000001A9F10109F5DC05E018F8010B52467C
:104530000D999047761CBBF10001ABF1010BF4DC47
:10454000641CFAE6092801000A68531C0B6010700D
:10455000704700001CB50D48417A007A81420BD3A8
:1045600040F292610A48CDE900011D231A46032159
:104570006120FEF747FE1CBD064820237E220088EE
:10458000009003216120FEF71FFC1CBD00040020E9
:10459000CC650008220000200EB5084A084910200A
:1045A000128809888DE80700064803233621027A1D
:1045B0004FF48270FEF7C0FD0EBD00002200002007
:1045C000200000200004002010B5962000F014F90F
:1045D0000022BDE8104004210148FCF7C8BD0000DE
:1045E000000C0140012204210148FCF7C0BD00007D
:1045F000000C01402DE9FC41574F584E4FF4FD642B
:10460000B87906F5FD6506287ED2DFE800F089035B
:104610001D37516BCDE9006416232E2233211D2056
:10462000FEF7F0FDCDE9005416232E223321702031
:10463000FEF7E8FDCDE9005416232E223321C220D7
:10464000FEF7E0FD012068E0CDE9005416232E229C
:1046500033211D20FEF7D6FDCDE9006416232E225E
:1046600033217020FEF7CEFDCDE9005416232E2213
:104670003321C220FEF7C6FD02204EE0CDE90054F2
:1046800016232E2233211D20FEF7BCFDCDE9005458
:1046900016232E2233217020FEF7B4FDCDE90064ED
:1046A00016232E223321C220FEF7ACFD042034E075
:1046B000CDE9006416232E2233211D20FEF7A2FD32
:1046C000CDE9006416232E2233217020FEF79AFDD7
:1046D000CDE9005416232E223321C220FEF792FD8D
:1046E00003201AE0CDE9006416232E2233211D2079
:1046F000FEF788FDCDE9006416232E2233217020B9
:10470000FEF780FD162300E00AE0CDE900642E22CA
:104710003321C220FEF776FD07207871BDE8FC81C9
:104720000020B8717871CDE9005416232E22332170
:104730001D20FEF767FDCDE9005416232E223321FC
:104740007020FEF75FFDCDE9005416232E223321A1
:10475000C220FEF757FDE1E7000400205E6C000870
:104760001049487918B10022012812D000E0012236
:1047700000231A4302280ED000231A4300D0887168
:1047800004280AD003280AD0072801D105208871FF
:1047900070470123EDE70123EFE70320F7E704204B
:1047A000F5E70000000400201CB50F48007D01283B
:1047B0000BD00E481E234FF4E1611A46CDE90001EB
:1047C00003210D20FEF71EFD1CBD094821232B22CD
:1047D0000088009003210D20FEF7F6FA1E2340F218
:1047E000CC6104481D22E9E700040020F0500008D5
:1047F00022000020F857000842F2283148434FF0C9
:10480000E02148610020886101220A610A69D3071A
:1048100001D0D203FAD5086188617047FEB50E4C0D
:104820000E4D1026208829880096CDE901100C4FE6
:1048300003230A21BA7AD720FEF77EFC2088298834
:104840000096CDE90110FA7A03230A2140F2011003
:10485000FEF772FCFEBD00002200002020000020B8
:10486000000400200EB5074A4FF4FC61182012889E
:104870008DE8070004480123CA2102785020FEF782
:104880005BFC0EBD220000200004002013B54FF693
:10489000FF73012269460248FEF714F800981CBD18
:1048A000140200202DE9F0410CA00122D0E90045BE
:1048B0000C4FD60231463846FCF759FC0520FFF76D
:1048C0009BFF094808210460456000F047FA314623
:1048D0003846BDE8F0410022FCF749BC1B0300004C
:1048E0000006F2C700080140180A00202DE9F04137
:1048F0000CA00122D0E900450C4FD60231463846C3
:10490000FCF735FC0520FFF777FF09480821046014
:10491000456000F023FA31463846BDE8F0410022F8
:10492000FCF725BC1B0400000006327200080140A1
:10493000180A00207FB54FF4E1644848CDE900042F
:104940001E231A4603210D20FEF75CFC4448CDE9E6
:1049500000041E231A4603213720FEF753FCFFF7FD
:104960005DFF404C404D41A2208800902B88F521EE
:104970000D20FFF705F84FF49C713D48CDE900018B
:104980000D220C23114640F21D10FEF73BFCFFF7F1
:1049900031FE00F06DFB208800902B8833A24FF48D
:1049A00091713920FEF7ECFF00F048FA40F69211C1
:1049B0003048CDE9000123231A467121B620FEF7C5
:1049C00021FC208800902B882BA2A2219620FFF7A3
:1049D00079F829882088CDE9000110233A22A12105
:1049E000D720FEF713FB2B88228826A110208DE804
:1049F0000F0003462022A1214FF48C70FEF7D6FB56
:104A00004FF400612148CDE9000120231A46C1215D
:104A10002A20FEF7F7FBFFF725FF00F007F940F625
:104A20002C211B48CDE900011F232A22C121E620A9
:104A3000FEF7E8FB00F0A4F9282348F23044DA003E
:104A4000194601200094FEF73DF9B4234FF4967205
:104A5000194614200094FEF735F97FBDF050000888
:104A6000C45E00082000002022000020B6C800001C
:104A70005A9E0008929F0008CAB5CAB1BAC4B5E7E9
:104A8000000000006B772F68000000002E7C0008FB
:104A90002E9400080B4810B5322303710122427096
:104AA000032101700021C17082700724447181715B
:104AB000C271054A0372C181117051709170D17039
:104AC000017510BD000400201400002038B5274CEB
:104AD0000546207801283CD1FFF78EFE6078244AF5
:104AE000C0F10100C1B26170012D06D0022D10D0BD
:104AF000032D1CD0042D2CD127E0012902D0FFF773
:104B0000B1FE26E01088E2235C22CA2100905020EA
:104B10000AE0012902D000F089F81AE0108800901C
:104B2000E123A922C1218920FEF74EF911E00129D4
:104B300002D000F025F90CE01088DB2300904FF440
:104B40009B72CB214FF48B70EEE7012904D0FFF765
:104B500023FD0020207038BD1088462300904FF4BC
:104B60008E7236214FF48270DEE7000014000020C0
:104B70002200002010B500F075F904480021044B14
:104B8000C170012283F86C20817010BD14000020D8
:104B9000180A002070B52249097801291FD10D0299
:104BA00029462048FCF7DEFA1F4E044669003046CD
:104BB000FCF7D8FA44EA400429463046FCF7D2FA1A
:104BC00044EA800480213046FCF7CCFA44EAC00471
:104BD00040213046FCF7C6FA44EA0010C0B21B2858
:104BE00014D007DC0F280DD0172817D1BDE870406E
:104BF000FDF70EBF1D280DD01E280FD1BDE8704057
:104C0000FDF7BEBFBDE87040FDF7AEBEBDE8704029
:104C1000FDF746BFBDE87040FDF76ABF70BD0000FC
:104C20001800002000080140001001401CB5094890
:104C300041784FF40060012909D00749CDE90010FF
:104C400020231A46C1218920FEF7DCFA1CBD034946
:104C5000F4E70000000400202E8400082E8C0008D9
:104C6000FCF798FAFFF725F8FEF7EEFBFEF7D6FB08
:104C7000FEF774FBFEF786FCFEF7A8FCFEF706FDC8
:104C8000FEF738FDFEF758FDFEF778FDFEF792FDC2
:104C9000FEF7ACFDFEF7C6FD1F48FBF7A7FC1F485B
:104CA000FDF75EF91E48FDF75BF91E48FDF758F960
:104CB00000F0EEF81C4801224178001D01441B4819
:104CC000FDF7CEFDFEF7C0F8FFF7E4FEFFF732FE7A
:104CD00017A0FFF7DFFA1F4C0BE000BFFFF7E2FD64
:104CE000FEF7BEFDFFF760FDFFF73AFD3220FFF74C
:104CF00083FD207D0028F1D000F0B4F8164C00BFF1
:104D0000FFF748FFE178A078FFF7E0FEFEF7A8FD87
:104D100000F03EF9F4E70000280000203C010020EC
:104D200084010020CC010020340300205C0200201C
:104D30003D3D3D3D3D3D3D3D3D20636F6465207300
:104D400074617274203D3D3D3D3D3D3D3D3D200D36
:104D50000A00000000040020140000200A4610B5DC
:104D600001464FF47A730548FDF7ACFD034800682F
:104D70000168C9434906FBD410BD00005C02002055
:104D8000F8B51948194C4FF48B718078238840F29C
:104D90002716012812D002281BD003280DD14FF668
:104DA000074513A2CB200095FEF73CFE0095238813
:104DB00010A23146CB20FEF735FEF8BD4FF4FC655E
:104DC0000DA2CB200095FEF72DFE009523880BA2A7
:104DD000EFE74FF6E0750AA2CB200095FEF722FE22
:104DE0000095238807A2E4E70004002022000020A9
:104DF000C7BF0000BEA20000BDDA0000C4DC000096
:104E0000C6D50000CDA800000B480121C1708178F3
:104E1000012908D002290AD0032903D150210171A8
:104E20000621017070471E2101710321F9E732212B
:104E300001710421F5E70000000400200EB5074AC7
:104E40004FF4FC61202012888DE8070004480323FA
:104E5000652102796E20FEF76FF90EBD2200002059
:104E60000004002010B5FFF7FDFCFFF7DFFEFFF7A1
:104E700087FFFFF7E3FF00F0FBF8FFF76BFB00F0A5
:104E8000D5F8FFF7CBFCBDE81040FFF7B3BB00003F
:104E900010B500224FF400610648FCF768F9064996
:104EA0000020C8704870054901F86B0F0120487058
:104EB00010BD00000008014034030020180A002043
:104EC0002DE9F0412F4E0122DFF8BC8086B000248E
:104ED000D70206F86C4F39464046FCF748F90520E2
:104EE000FFF78AFC1B208DF8000010208DF80100D0
:104EF0008DF8044006208DF805000C20234D8DF818
:104F000002408DF806008DF803408DF807402878A0
:104F10008DF808008DF8094068788DF80A00287926
:104F20008DF80B0068798DF80C008DF80D40E8794C
:104F30008DF80E00E8788DF80F00A8788DF8100035
:104F40008DF81140287A8DF8120013216846FEF77B
:104F5000EBF9010A8DF813108DF81400152269463B
:104F60000848FBF713F915210648FFF7F7FE002262
:104F700039464046FCF7FBF801203070EC7006B073
:104F8000BDE8F081180A002000080140000400205C
:104F9000FEB52048204C0027C07810B184F86C7012
:104FA000FEBD94F86B000128FAD194F86C0001283A
:104FB000F6D1FFF79BFC00F05BF8FFF7CBFAFFF7A9
:104FC0002DFC164D287BFBF7D9F90221FBF7CAF916
:104FD0001349FBF789F90646E889FBF7CFF9022167
:104FE000FBF7C0F93146FBF7F5F828610120FFF720
:104FF00003FC0C4A0C491020128809888DE8070030
:105000000123A121E6202A69FEF71CF984F86B70C0
:10501000FEBD000014000020180A0020000400203B
:105020000000704220000020220000201CB50D4826
:10503000C079012809D00C4821235522008800900E
:1050400003213720FDF7C0FE1CBD4FF4E161074886
:10505000CDE900011E231A4603213720FEF7D2F8BE
:105060001CBD00000004002022000020C45E0008D7
:105070000EB5084A08491020128809888DE80700F3
:10508000064803233621427A4FF48270FEF754F823
:105090000EBD00002200002020000020000400209F
:1050A000034801780029FCD00021017070470000FE
:1050B0001E000020010202030405060708090A0B6E
:1050C0000C0D0E0F1010010202030405060708095B
:1050D0000A0B0C0D0E0F1010000000000000000065
:1050E000010203040607080900000000010203048E
:1050F00000000000000000000000000000000000B0
:10510000000000000000000000000000000000009F
:10511000000000200000000000000000000000006F
:10512000000000000000000000000000000000007F
:10513000000000000000000000000000000000006F
:10514000000000000000000000000000000000005F
:10515000000000000000000000000000000000004F
:10516000000000000000000000000000000000003F
:10517000000000000000000000000000000000002F
:1051800000200000000000000000000000200000DF
:10519000000000000000000000000000000000000F
:1051A00000000000000000000000000000000000FF
:1051B00000000000000000000000000000000000EF
:1051C00000200000000000000000000000000000BF
:1051D00000000000000000000000000000000000CF
:1051E00000000000000000000000000000000000BF
:1051F000000000000020000000000000000000206F
:10520000000000000000000000000020000000007E
:10521000000000000000000000000000000000008E
:10522000000000000000000000000000000000007E
:1052300000000000000000000000000000007BEF04
:10524000E71CFFFFFFFFE71C7BEF000000000000F2
:10525000000000000000000000000000000000004E
:10526000000000000000000000000000000000201E
:1052700000000000000000009CF3FFFFFFFFAD7581
:10528000A534F79EFFFFA5140000000000000000F9
:10529000000000000000000000000000000000000E
:1052A00000000000000000000000000000200000DE
:1052B00000009CF3FFFFD69A18E300200000108244
:1052C000D69AFFFF42080000000000000000000026
:1052D00000000000000000000000000000000000CE
:1052E000000000000000000000000000A514FFFF07
:1052F000A5140000000000000000000018E3FFFFFC
:10530000B596000000000000000000000000000052
:10531000000000200000000000000000000000006D
:105320000020000000009492FFFF9CF300000000AA
:1053300000000000000000000000D69AC6180020FF
:10534000000000000000000000000000000000005D
:10535000002000000000000000000000000000002D
:105360000000C61894920000000010A26B6D00208F
:10537000000000000000EF7DBDF70000000000000D
:10538000000000000000000000000000000000001D
:1053900000200000000000200000000000200000AD
:1053A00000000000000039C7FFFF000000000000FF
:1053B0006B6DFFFF949200000000000000000000F1
:1053C000000000000020000000000000000000209D
:1053D000000000006B6D42080000000000000000AB
:1053E00000000000000000000000630CFFFFEF7DE4
:1053F000108200000000000000000000000000001B
:105400000000000000000000000000000000A514E3
:10541000FFFF630C000000002104528A000000001E
:1054200000000000630CFFFFEF7D318600000020CC
:10543000000000000000000000000000000000204C
:105440000000000000000000A534FFFFA5140000CC
:1054500000200000BDF7FFFF000000000000630C0B
:10546000FFFFF79E318600000000000000000000F2
:10547000000000000000000000000000002000000C
:1054800000009CF3FFFFA5140000000000000000D6
:1054900031A66B6D000000002965FFFFEF7D3186AE
:1054A00000000000000000000000000000000000FC
:1054B0000000000000000000000000009492FFFFC8
:1054C000A514000000000000000000000000000023
:1054D000000000003186BDF73186000000000000AA
:1054E00000000000000000000000000000000000BC
:1054F0000000000000002104FFDFD6BA0000000019
:105500000000FFFFC61800000000000000000000BF
:10551000000000000000000000000000000000008B
:10552000000000000000000000000000000000007B
:1055300000008410FFFF39E7000000000020BDF7E5
:105540008C7100000000528AB59600000000000037
:10555000000000000000000000000000000000004B
:1055600000000000000000000000000000008410A7
:10557000FFDF00200000000000000000000000002D
:105580005AEBFFFFEF7D000000000000000000006C
:10559000000000000000000000000000000000000B
:1055A000000000000000002000008410FFFF318692
:1055B000000000000000000000005AEBFFFFF79E13
:1055C0003186000000000000000000000000000024
:1055D00000000000000000000000000000000000CB
:1055E0000000000000003186FFFFCE790861000056
:1055F00000000000630CFFFFF79E2965000000001B
:10560000000000200000000000000000000000007A
:10561000000000000000000000000000000000008A
:105620000020000094B2FFFFFFFFA5147BEFE71CF2
:10563000FFFFEF7D29650000000000000020000052
:10564000000000000000000000000000000000005A
:10565000000000000000000000000000000000004A
:1056600000009492FFFFFFFFFFFFFFFFCE7931861E
:10567000000000000000000000000000000000002A
:10568000000000000000000000000000000000001A
:10569000000000000000000000000000000000000A
:1056A000000042086B6D39E70000000000000000B8
:1056B00000000000000000000000000000000000EA
:1056C00000000000000000000000000000000000DA
:1056D00000000000000000000000000000200000AA
:1056E000000000000000002000000000000000009A
:1056F00000000000000000000000000000000000AA
:105700000000000000000000000000000000000099
:105710000000000000000000000000000000000089
:105720000000000000000000000000000000000079
:105730000000000000000000000000000000000069
:105740000000000000000000000000000000000059
:105750000000000000000000000000000000000049
:105760000000000000000000000000000000000039
:105770000000000000000000000000000000000029
:105780000000000000000000000000000000000019
:105790000000000000000000000000000000000009
:1057A00000000000000000000000000000000000F9
:1057B00000000000000000000000000000000000E9
:1057C00000000000000000000000000000000000D9
:1057D00000000000000000000000000000000000C9
:1057E00000000000000000000000000000000000B9
:1057F00000000000000000000000000000000000A9
:105800000000000000000000000100000000000097
:105810000000000000000000002000200800000040
:105820000020000008000000000000000000000050
:105830000000000000000000000000000000000068
:105840000000000000000000000000000000000058
:1058500008000800000000010801002000200000EE
:105860000000000000000000000000000000000038
:105870000000000000000000000000000000000028
:1058800000000000000000000000000000010020F7
:105890000000000000000000000000000000000008
:1058A00000000000000000000000000000000000F8
:1058B00000000000000000000000000000000000E8
:1058C0000020002000000000000000200000000078
:1058D00000000020000000000000000000000000A8
:1058E00000000000000000000000000000000000B8
:1058F0000000000000000000000000200000000088
:105900000000002000210000000008000801000045
:105910000000000000000000000000000000000087
:105920000000000000000000000000000000000077
:105930000020000000000000000001421CE52E468F
:10594000266625E613C40060000000000000000089
:105950000000000000000000000000000000000047
:10596000000000000000000000000000000008002F
:10597000008002211E072E262D860B422527268712
:105980002D870080000000000000000000000000E3
:105990000000000000000000000000000000000007
:1059A000080000000000000100000A422E292DE638
:1059B00009A200000020000102C2364714030000C3
:1059C00000000000000000000000000000000000D7
:1059D0000000000000000000000000200000002186
:1059E00000011263266725E6012200200001000065
:1059F000000000001CA62666002000000000000039
:105A00000000000000000000000000000000000096
:105A10000000000000010000000012422E072DE7E8
:105A20000162000000000020080000000020136355
:105A30002E47192300200000000000000000000095
:105A40000000000000000000000000000000002036
:105A5000000000010A222D26012100000000026141
:105A6000010000200001000013A42E4811030000D3
:105A7000000000000000000000000000080100001D
:105A800000000000000000010020000000000000F5
:105A900000000020000023C52E4713040000000171
:105AA00008801DC52D6700200000000000000000D8
:105AB00000000000000000000000000000000001E5
:105AC00000001181124200200000000000011BE5CF
:105AD0001E6725460081000000601D4626670222E1
